:020000040800F2
:100000000018002001250008B5030008B703000808
:1000100000000000000000000000000000000000E0
:10002000000000000000000000000000B90300080C
:100030000000000000000000BB030008BD03000832
:1000400081250008000000008125000881250008A6
:1000500081250008812500088125000881250008E8
:100060000000000081250008812500088125000886
:100070008125000881250008812500080000000076
:10008000812500080000000000000000C5030008F2
:100090000000000081250008812500088125000856
:1000A000000000008125000800000000DD030008BA
:1000B000ED0300080000000000000000812500089A
:1000C00010B5064C2378002B07D1054B002B02D02E
:1000D000044800E000BF0123237010BDEC000020A5
:1000E0000000000070360008044B10B5002B03D050
:1000F0000349044800E000BF10BDC04600000000F6
:10010000F000002070360008002243088B4274D3B0
:1001100003098B425FD3030A8B4244D3030B8B4208
:1001200028D3030C8B420DD3FF22090212BA030C11
:100130008B4202D31212090265D0030B8B4219D3F2
:1001400000E0090AC30B8B4201D3CB03C01A524112
:10015000830B8B4201D38B03C01A5241430B8B425A
:1001600001D34B03C01A5241030B8B4201D30B0343
:10017000C01A5241C30A8B4201D3CB02C01A52416A
:10018000830A8B4201D38B02C01A5241430A8B422D
:1001900001D34B02C01A5241030A8B4201D30B0216
:1001A000C01A5241CDD2C3098B4201D3CB01C01A30
:1001B000524183098B4201D38B01C01A524143093A
:1001C0008B4201D34B01C01A524103098B4201D328
:1001D0000B01C01A5241C3088B4201D3CB00C01A95
:1001E000524183088B4201D38B00C01A524143080D
:1001F0008B4201D34B00C01A5241411A00D2014632
:10020000524110467047FFE701B5002000F006F8A4
:1002100002BDC0460029F7D076E770477047C04658
:1002200010B588B01422002103A802F006FA134B7F
:10023000596980208002014359615A690240019244
:10024000019A5A698021C9020A435A615B690B40CD
:100250000293029B0A4C00226021200001F096FAD2
:10026000602303935F3B049300230593069303A944
:10027000200001F0C5F908B010BDC04600100240D2
:100280000004004810B50948094B036096239B0100
:10029000436000238360C36003610C224261836179
:1002A000C3610362436200F003FC10BD240200201E
:1002B0000038014010B50A480A4B036096239B01A1
:1002C000436000238360C36003610C224261836149
:1002D000C361036243620022002100F03DFD10BDB6
:1002E000940200200044004010B50648064B03600D
:1002F000002343608360C3600361836100F03EFAC2
:1003000010BDC046040300200020004030B597B067
:100310002C2200210BA802F090F91022002106A83F
:1003200002F08BF91422002101A802F086F90223C1
:100330000A9301250D950E330E930AA800F056FD81
:10034000072306930024079408940994002106A823
:1003500000F0BCFF0195039401A801F079F817B0F3
:1003600030BD00B583B001F01BF9FFF7CFFFFFF7F9
:1003700057FFFFF787FFFFF79DFFFFF7B5FF01224C
:1003800000211B2001F02EFA1B2001F05DFA142041
:1003900001F056FD01F074FD9623002200929B01AE
:1003A00001320A21002001F075FA01F0D7FA01F0BC
:1003B000E9FAFCE77047FEE77047704710B501F0B7
:1003C000FFF810BD10B5044C200001F071FD2000B5
:1003D00000F0E5F810BDC0460403002010B5024847
:1003E00000F026FC10BDC0462402002010B50548D0
:1003F00001F022FE002800D010BD034800F018FCD8
:10040000FAE7C046003801409402002082B00A4B4F
:10041000996901221143996199690A400092009AF1
:10042000DA69802149050A43DA61DB690B400193EF
:10043000019B02B07047C0460010024000B583B077
:1004400002680C4B9A4201D003B000BD0A4AD16940
:10045000802040000143D161D36903400193019B97
:1004600000220021ED3801F0BDF9132001F0ECF974
:10047000EAE7C046002000400010024010B58AB0F4
:1004800004001422002105A802F0D7F823682C4AA2
:10049000934204D02B4A93422BD00AB010BD2A4B72
:1004A00099698020C001014399619A6902400192D3
:1004B000019A5A69802189020A435A615B690B409B
:1004C0000293029BC023DB000593022306930133B2
:1004D0000893023B0993902005A9C00501F090F80C
:1004E000002200211B2001F07DF91B2001F0ACF956
:1004F000D3E7154BD969802292021143D961D9699A
:100500001140039103995969114359615B691A407C
:100510000492049B0E2305930C3B0693013308932E
:10052000023B0993902005A9C00501F069F800225B
:1005300000211C2001F056F91C2001F085F9ACE7E0
:100540000038014000440040001002400368DA68AF
:1005500001210A43DA60026813680B43136000202C
:10056000704700000268D36801218B43D3600368A1
:10057000196A064A114207D1196A054A114203D184
:100580001A6801218A431A60002070471111000087
:10059000440400007047704770477047704710B5BB
:1005A000040003681A6992070FD5DA6892070CD520
:1005B000032252421A610123037703689B699B0758
:1005C00063D0FFF7E9FF0023237723681A695207F6
:1005D00012D5DA6852070FD5052252421A6102235A
:1005E000237723689A69C0239B001A4253D02000C6
:1005F000FFF7D2FF0023237723681A69120710D56B
:10060000DA6812070DD5092252421A6104232377B2
:100610002368DB699B0745D02000FFF7BDFF00235F
:10062000237723681A69D20612D5DA68D2060FD565
:10063000112252421A61082323772368DA69C02302
:100640009B001A4235D02000FFF7A6FF0023237736
:1006500023681A69D20702D5DA68D20730D4236832
:100660001A69120602D5DA68120630D423681A69AC
:10067000520602D5DA68520630D423681A69920607
:1006800002D5DA68920630D410BDFFF784FF20004F
:10069000FFF783FF97E72000FFF77DFF2000FFF7BC
:1006A0007CFFA7E72000FFF776FF2000FFF775FF2C
:1006B000B5E72000FFF76FFF2000FFF76EFFC5E7EB
:1006C000022252421A612000FFF764FFC7E781222D
:1006D00052421A61200000F06CF8C7E741225242F2
:1006E0001A612000FFF75AFFC7E7212252421A6120
:1006F000200000F05DF8C7E703681A4A904202D074
:10070000194A904203D1702293434A681343154A11
:1007100090420BD0144A904208D0144A904205D01F
:10072000134A904202D0134A904203D1124A134016
:10073000CA681343802293434A69134303608B685A
:10074000C3620B688362074B984205D0084B9842FE
:1007500002D0084B984201D10B6903630123436126
:100760007047C046002C01400004004000200040BB
:100770000044014000480140FFFCFFFF70B5041E2B
:1007800014D03D23C35C002B0AD03D2502236355C2
:10079000210001C9FFF7B0FF01236355002070BDA0
:1007A0003C330022C254FFF749FEEEE70120F6E792
:1007B000704770470268136806490B40136002686F
:1007C00093682331FF318B4393606A232022C25404
:1007D0007047C046DFFEFFFF70477047704710B597
:1007E000406A00235A228352083A8352FFF7F6FFE9
:1007F00010BD000070B504008368026913434269AC
:100800001343C269134301680A68634802401343F3
:100810000B602268536861490B40E1680B435360E9
:10082000A269236A1A4321688B685D480340134319
:100830008B6025685B4B9D4220D05B4B9D422BD04B
:10084000102380221202E16991422FD0022B00D1A5
:1008500087E000D871E0042B00D18EE0082B00D097
:100860007DE06168480880231B029C466044FFF7D6
:100870004BFC0004000CE860002043E04B4B1A6B7B
:1008800003231340012B09D0002B09D0022B09D0E0
:10089000032B09D01023D4E70023D2E70423D0E7A9
:1008A0000023CEE70823CCE70223CAE7022B2DD092
:1008B0000FD9042B35D0082B25D163685808802325
:1008C0005B029C4660446168FFF71EFC83B2002017
:1008D0000FE0002B0BD100F0ABFD400063685B081C
:1008E000C0186168FFF710FC83B2002001E001200E
:1008F00000230F22190091435B10083A13400B4369
:100900002268D36070BD01200023F2E763685808B5
:10091000274B9C4660446168FFF7F6FB83B20020DA
:10092000E7E700F099FC400063685B08C018616865
:10093000FFF7EAFB83B20020DBE7002B0DD100F0CC
:1009400077FD63685B08C0186168FFF7DDFB23680B
:100950000004000CD8600020D4E70120D2E7012079
:10096000D0E761684808134B9C466044FFF7CCFB16
:100970000004000CE8600020C4E700F06DFC636830
:100980005B08C0186168FFF7BFFB23680004000C18
:10099000D8600020B6E7C046F369FFEFFFCFFFFF46
:1009A000FFF4FFFF00380140004400400010024007
:1009B0000024F40000127A00436ADB0706D50268BF
:1009C00053682C490B40816A0B435360436A9B0771
:1009D00006D50268536828490B40C16A0B4353602F
:1009E000436A5B0706D50268536824490B40016BD4
:1009F0000B435360436A1B0706D5026853682049BE
:100A00000B40416B0B435360436ADB0606D502681B
:100A100093681C490B40816B0B439360436A9B06B0
:100A200006D50268936818490B40C16B0B4393606D
:100A3000436A5B060BD50268536814490B40016C8E
:100A40000B43536080235B03026C9A420AD0436AD3
:100A50001B0606D5026853680D490B40816C0B4399
:100A600053607047026853680A490B40416C0B435E
:100A70005360ECE7FFFFFDFFFFFFFEFFFFFFFBFF03
:100A8000FF7FFFFFFFEFFFFFFFDFFFFFFFFFEFFF36
:100A9000FFFFF7FFFFFF9FFF0023C36620226921AE
:100AA00042540131425448328354002070470000C0
:100AB00010B5041E30D06923C35C002B22D06923FB
:100AC0002422E2542268136801218B431360200022
:100AD000FFF790FE012814D0636A002B18D122681A
:100AE00053680E490B4053602268936808218B437A
:100AF00093602268136807390B4313602000FFF7E7
:100B0000CBFF10BD68330022C254FFF7B7FCD6E715
:100B10002000FFF751FFE2E70120F2E7FFF7FFFFB8
:100B20006923C35C212B2FD13133C35A9BB2002BD5
:100B30000BD10268136880218B431360026813682D
:100B400040390B43136000201FE080235B01826863
:100B50009A420CD0C36C5A1CC2641B78026813857D
:100B60005222835A013B9BB2835200200DE003695D
:100B7000002BEFD1C36C1B88DB05DB0D02681385EE
:100B8000C36C0233C364EBE70220704710B5026800
:100B9000136840218B43136069232022C254FFF75E
:100BA0001BFE002010BD000010B55C23C25A0E339E
:100BB000C35C222B32D103689B8C9BB280214901FC
:100BC00084688C420ED0D2B2416D4C1C44651340F7
:100BD0000B705A22835A013B9BB28352002B0BD0DD
:100BE000002010BD01690029EDD11340426D138032
:100BF000436D02334365ECE7026813680B490B4011
:100C00001360026893682331FF318B4393606A233A
:100C10002022C254FFF7E1FD0020E2E70268936959
:100C200008210B4393610220DBE7C046DFFEFFFF94
:100C300070B504000168CB6908680F221A4003D11F
:100C40009D0601D5850614D48D68002A06D00122A0
:100C50002A4012D190256D0028420ED11A0602D5E5
:100C6000020600D56DE05B0602D5430600D56CE0B8
:100C700070BD2000FFF798FFFAE7DD0706D5C50530
:100C800004D501250D62E16E2943E166990708D577
:100C9000002A06D0216802250D62E16E0235294343
:100CA000E166590708D5002A06D0216804250D629F
:100CB000E16E023D2943E166190709D5810601D499
:100CC000002A05D0226808211162E26E0A43E2661A
:100CD000E26E002ACCD09B0601D583061FD4E36EBA
:100CE0001B0703D423689B685B0624D52000FFF70D
:100CF00061FD23689A68520619D59A6840218A4393
:100D00009A60636E002B0ED0124A5A63606E00F038
:100D100043FD0028ACD0606E436B9847A8E72000E5
:100D2000FFF742FFDBE72000FFF758FDA0E72000B8
:100D3000FFF754FD9CE72000FFF750FD0023E3661A
:100D400096E72000FFF7ECFE92E72000FFF71EFF7A
:100D50008EE7C046DF070008F8B504000F00160054
:100D60001D0000283BD06923C35C002B2DD06923D4
:100D70002422E2542268136801218B43136020006F
:100D8000FFF738FD01281FD0636A002B23D12268AA
:100D900091688023DB010B439360226893681149BB
:100DA0000B401F43976076052D042E4323681D6872
:100DB0000D4A15402E431E602268136801210B4323
:100DC00013602000FFF768FEF8BD68330022C254AC
:100DD000FFF754FBCBE72000FFF7EEFDD7E701203C
:100DE000F2E7C046FF7FFFFFFFFF00FC70B582B057
:100DF00004000368DB072BD5B34B5A680C23134060
:100E0000042B1DD0B04B5A680C231340082B0ED076
:100E10006368012B41D0002B56D1AB4B1A68AB490C
:100E20000A401A601A68AA490A401A603BE0A64BB9
:100E30005B68C02252021340802252029342E7D1E3
:100E4000A14B1B689B0303D56368002B00D1F1E124
:100E500023689B0777D59C4B5B680C221A4262D0B3
:100E6000994B5A680C231340082B53D0E368002B8E
:100E700000D18AE0944A136801210B43136000F00B
:100E8000A7FB0500904B1B689B0775D400F0A0FBE7
:100E9000401B0228F6D90320D1E18B4A1168802338
:100EA0005B020B4313606368002B25D000F090FBBE
:100EB0000500854B1B689B03CAD400F089FB401BCF
:100EC0006428F6D90320BAE1052B09D07E4B1A68B5
:100ED0007E490A401A601A687D490A401A60E2E7B2
:100EE000794B19688022D2020A431A60196880225D
:100EF00052020A431A60D6E700F06AFB0500724B03
:100F00001B689B03A4D500F063FB401B6428F6D943
:100F1000032094E16C4B5B68C02252021340802294
:100F200012029342A2D1684B1B689B0703D5E3686A
:100F3000012B00D080E164490B68F82293432269B9
:100F4000D20013430B6023681B0744D5E369002BD1
:100F50002ED05D4A536A01210B43536200F038FBE7
:100F60000500594B5B6A9B0735D400F031FB401BF1
:100F70000228F6D9032062E153490B68F822934313
:100F80002269D20013430B60DDE74F4A1368012149
:100F90008B43136000F01CFB05004B4B1B689B0749
:100FA000D1D500F015FB401B0228F6D9032046E1FD
:100FB000454A536A01218B43536200F009FB050047
:100FC000414B5B6A9B0706D500F002FB401B0228E1
:100FD000F6D9032033E123685B0700D480E03A4B65
:100FE000DB69DB001DD4384AD1698020400501430C
:100FF000D161D36903400193019B0125354B1B68E7
:10100000DB0510D5A368012B21D0002B36D12E4B48
:101010001A6A01218A431A621A6A03318A431A62E0
:101020001AE00025EAE72B4A116880235B000B4396
:10103000136000F0CDFA0600264B1B68DB05E1D4F7
:1010400000F0C6FA801B6428F6D90320F7E01E4A98
:10105000136A01210B431362A368002B24D000F014
:10106000B7FA0600184B1B6A9B0737D400F0B0FA9A
:10107000801B194B9842F5D90320E0E0052B09D0DD
:10108000114B1A6A01218A431A621A6A03318A4390
:101090001A62E1E70C4B1A6A04210A431A621A6ABF
:1010A00003390A431A62D7E700F092FA0600064BAA
:1010B0001B6A9B0712D500F08BFA801B064B9842E7
:1010C000F5D90320BBE0C04600100240FFFFFEFF41
:1010D000FFFFFBFF0070004088130000012D33D09C
:1010E0002368DB0610D56369012B33D0053351D15A
:1010F000554A536B04218B435363536BF4318B4339
:10110000A169C9000B435363236A002B00D195E00A
:101110004D4A51680C220A40082A00D191E0022B66
:101120004FD0494A136849490B40136000F050FA08
:101130000400454B1B689B017AD500F049FA001B5F
:101140000228F6D903207AE03F4AD36940490B4090
:10115000D361C5E73C4B5A6B04210A435A635A6B6F
:1011600003390A435A6300F033FA0500364B5B6BD0
:101170009B0706D400F02CFA401B0228F6D9032066
:101180005DE031494B6BF8229343A269D2001343CF
:101190004B63B9E72C4B5A6B04210A435A635A6BD1
:1011A00003398A435A6300F013FA0500264B5B6B40
:1011B0009B07A9D500F00CFA401B0228F6D90320A2
:1011C0003DE0214A136821490B40136000F000FA0A
:1011D00005001D4B1B689B0106D500F0F9F9401B6B
:1011E0000228F6D903202AE0174BDA6A0F218A4336
:1011F000E16A0A43DA625A6816490A40A16A606ADB
:1012000001430A435A601968802252040A431A6053
:1012100000F0DEF904000C4B1B689B0106D400F0C3
:10122000D7F9001B0228F6D9032008E0002006E0C9
:10123000002004E0012002E0012000E0002002B0D4
:1012400070BD0120FBE7C04600100240FFFFFFFE1B
:10125000FFFFFFEFFF7FC2FF30B589B004AA184B34
:10126000180032C832C2110002680A606A461033A0
:1012700013CB13C21B681360124B5A680C23134024
:10128000082B02D0104809B030BD910C073319402B
:1012900004A8445C0B49C96A0B406946C95CC02379
:1012A0005B021A4080235B029A4204D00648FEF794
:1012B0002BFF6043E7E70448FEF726FF6043E2E7C1
:1012C000883600080010024000127A0070B5040051
:1012D0000D004E4B1A68012313408B420AD24B4932
:1012E0000B68012293432B430B600B681A40AA4200
:1012F00000D084E023689B0706D5454A5368F02157
:101300008B43A1680B4353602368DB074CD56368AC
:10131000012B21D0022B25D03D4A1268920700D420
:101320006FE03B494A680320824313434B6000F05F
:101330004FF906006368012B1AD0022B26D0344BDC
:101340005B680C221A422FD000F042F9801B314B0F
:101350009842F4D9032051E02D4A12689203E0D458
:1013600001204BE02A4A12689201DAD4012045E0BC
:10137000274B5A680C231340042B15D000F028F992
:10138000801B244B9842F3D9032037E0204B5A6846
:101390000C231340082B07D000F01AF9801B1D4BBB
:1013A0009842F3D9032029E0184B1A68012313400F
:1013B000AB4209D915490B68012293432B430B60BB
:1013C0000B681A40AA421ED123685B0706D5104A53
:1013D000536811490B40E1680B435360FFF73CFF32
:1013E0000B4B5A6812090F2313400C4AD35CD840A8
:1013F0000B4B1860002000F0C1F8002070BD0120E8
:10140000FCE70120FAE70120F8E7C046002002408F
:101410000010024088130000FFF8FFFFD0390008D9
:1014200084000020014B18687047C04684000020EB
:1014300010B5FFF7F7FF044B5A68120A0723134051
:10144000024AD35CD84010BD00100240E0390008C9
:1014500070B582B004000368DB0335D5414BDB690E
:10146000DB0052D43F4AD169802040050143D1615D
:10147000D36903400193019B01253B4B1B68DB05AE
:1014800045D5384B1B6AC0229200134013D06168C7
:101490000A409A420FD0334B186A344A02401E6AFF
:1014A0008021490231431962196A314E3140196273
:1014B0001A62C3073FD42B4A136A2C490B40616858
:1014C0000B431362012D45D02368DB0706D5254A5F
:1014D000136B03218B43A1680B43136323689B06A3
:1014E00006D5204A136B10218B43E1680B4313632D
:1014F00023689B0333D51B4A136B80218B432169DF
:101500000B431363002002B070BD0025B5E7164AF7
:10151000116880235B000B43136000F059F806004C
:10152000114B1B68DB05ACD400F052F8801B64281B
:10153000F6D90320E7E700F04BF80600094B1B6AD9
:101540009B07B8D400F044F8801B0A4B9842F5D9A9
:101550000320D8E7D36908490B40D361B4E70020E2
:10156000D1E7C0460010024000700040FFFCFFFFC2
:10157000FFFFFEFF88130000FFFFFFEF10B5040020
:10158000FFF750FFFA218900FEF7BEFD00F066F973
:10159000012000222100404200F024F9002010BD6B
:1015A00010B5064A136810210B4313600020FFF7A3
:1015B000E5FFFEF72BFF002010BDC04600200240D3
:1015C000024A1368013313607047C0464403002089
:1015D000014B18687047C0464403002030B583B003
:1015E0000190FFF7F5FF0500019C631C00D001345A
:1015F000FFF7EEFF401BA042FAD303B030BD00005E
:10160000F0B5C64600B582B0002338E0032600E0FE
:101610000026AE4035003D430234A400554EA5518E
:10162000554C25684246D4432E0026404A68D203D2
:1016300002D5424615432E004F4D2E606D682E0098
:1016400026404A68920302D5424615432E004A4D71
:101650006E60AD682E0026404A68D20202D542462E
:1016600015432E00444DAE60ED682C404A6892024E
:1016700002D542462A4314003F4AD46001330A6827
:101680001400DC4071D001259D402A409046F5D0E1
:101690004C68022C01D0122C0ED1DC080834A400B6
:1016A000275807261E40B6000F22B24097430A690A
:1016B000B24016003E43265002685F000324260015
:1016C000BE40F643324094464A681440BC406246ED
:1016D000144304604C68621E012A03D9112C01D006
:1016E000122C10D184683440A446CC68BC406246B9
:1016F000144384604468AC434A68120901251540CC
:101700009D4025434560C46826408C68BC403443F6
:10171000C4604A68D200B1D5184DAE690124264391
:10172000AE61AD692C400194019C9C08A51CAD00E4
:10173000104EAF5903251D40AD000F26AE40B743F4
:101740009026F605B04200D162E70D4EB04208D0B7
:101750000C4EB04207D00C4EB04200D156E70526E1
:1017600057E7012655E7022653E702B004BC90462E
:10177000F0BDC046000001400004014000100240DE
:101780000004004800080048000C0048002A01D06E
:10179000816170478162FCE710B52123C35C022B95
:1017A00003D004238363012010BD026813680E2157
:1017B0008B43136001680A6801239A430A60C26B75
:1017C0001900046CA1405160212283541F33002270
:1017D000C254436B002B02D098470020E4E700205E
:1017E000E2E7000070B5002811DB8308144DC03318
:1017F0009B005C5903221040C000FC32160086405A
:10180000B44389010A40824014435C5170BDC0B2A8
:101810000F230340083B9B0806339B00094A94466C
:1018200063445D6803242040C000FF22140084400C
:10183000A54389010A4082402A435A60E6E7C04630
:1018400000E100E000ED00E01F2318401E3B834054
:10185000014A13607047C04600E100E001380A4BBE
:1018600098420FD8094A50600948036A1B021B0AB4
:10187000C02109060B430362002393600733136002
:10188000002070470120FCE7FFFFFF0010E000E0B0
:1018900000ED00E070B50D0011001A0004AB1B78DC
:1018A0006C1EE4B2F62C2AD8174C2570002801D003
:1018B000022425E01548164C04601648164C0460B6
:1018C0001648174C04601748174C0460174800244A
:1018D00004601748174C04601748184C04601848F7
:1018E000184C0460280000F0D1F8041E08D100F064
:1018F00079FA002806D0144B01221A7000E0022465
:10190000200070BD0324FBE7210100201801002006
:10191000D11A00081C010020F11A00081001002053
:10192000711B00080C010020051B00081401002099
:1019300050030020E91B0008480300209D1C0008FC
:101940004C030020351D00080000002001207047D6
:1019500001207047012070470120704710B5074BE8
:101960001B78012B01D0062010BD054B1B68984742
:10197000024B00221A700020F6E7C046000000204B
:101980001801002010B582B0364B1B78002B63D1B4
:101990006B46D81D00F03AFA012803D0002420003D
:1019A00002B010BD6B4607331B78012B03D0022B0E
:1019B00015D00024F3E72C4B1B682C4A2C492D48EA
:1019C0009847041E4AD12B4B1B782B4A127893421E
:1019D00001D0002BE3D1022000F00CFADFE7244B0A
:1019E00018680478254B1C70254B01221A700023BF
:1019F00000E001330F2B0DDCDA002249525C002A93
:101A000008D09442F5D1DB00CB185B6817499847A2
:101A10001B4B1870174B1B78002B21D0184B1B78D1
:101A2000002B0ED0154A14781148104A012111805C
:101A30008139214304682170006811884C1C14808E
:101A400043540A4B1A880A4B19680B4B18780E4BF3
:101A50001B6898470024A2E70624A0E700249EE71D
:101A600000249CE7000000200C0100202A01002037
:101A70002401002028010020210100202001002055
:101A800008010020040000201001002010B508000B
:101A9000140072B60822210000F060FA012802D07A
:101AA000032062B610BD9623DB019C420AD8610078
:101AB0000648FEF729FB80B200F0C2F9012803D0E6
:101AC0000320EEE72320F6E70020EAE7A07F1700D7
:101AD00010B572B6054B00221A700021012000F0EB
:101AE00007FA00F0CDF962B610BDC0462C01002007
:101AF00010B572B60021002000F0FAF900F0D0F91C
:101B000062B610BD70B505000E00140072B6134B1E
:101B10001B889BB2FF2B07D8104B1B889BB2032B53
:101B200008D8052062B670BD0D4B0E4A9C210E48A8
:101B300000F028FD094B198889B20C4800F038F9EB
:101B4000002809D1094B1A782A70044A1288033AEE
:101B5000228001333360E5E70520E3E7340100200C
:101B6000F8360008A8360008203700085C0300207B
:101B700010B572B6174B1B78012B02D0052062B648
:101B800010BD4B1E14490B60144C012121801870AC
:101B90002188891889B22180218889B2180000F033
:101BA00007F923889BB25A1C92B22280C2B20C4918
:101BB000CA5423889BB25A1C92B22280000AC0B237
:101BC000C8540122074B1A700121002000F090F93F
:101BD0000020D4E72C010020300100203601002035
:101BE0005C0300202D01002000B583B0244B1B783E
:101BF000002B11D16B46D81D00F016FA214B1B7833
:101C0000DBB2012B14D0002B0CD0022B22D0032BE3
:101C10000BD0002003B000BD1B4B1C4AE6211C4822
:101C200000F0B0FC00F02CF9F3E700F029F9F0E740
:101C3000184A0023138013889BB2591C89B2118063
:101C40006A46D179144AD1540E4B02221A7000F020
:101C500017F9DEE70F4B1B889BB2FF2B0CD80D4901
:101C60000B889BB25A1C92B20A806A46D1790A4A02
:101C7000D15400F005F9CCE7024B03221A70F8E7C3
:101C80002D0100202C01002034370008B836000850
:101C900020370008340100205C03002010B51E4BE3
:101CA0001B78012B09D11D4B1B78DBB2002B0BD00D
:101CB000012B0FD00024200010BD2221184B194AFF
:101CC000FF31194800F05EFC0021012000F010F9FE
:101CD0000024F0E7154B1B889BB2002B0FD0144C4F
:101CE00023681878C0B200F097F9236801332360A5
:101CF0000E4A1388013B9BB213800024DBE70320CC
:101D000000F078F804000021012000F0F1F8034B06
:101D100000221A70CFE7C0462C0100202D010020C0
:101D2000B4370008CC360008203700083601002000
:101D30003001002010B51A4B1B78DBB2022B16D0F5
:101D4000032B20D0002B0DD0154B1B78002B22D05D
:101D5000134B1B78022B20D0114B1B78032B0BD17C
:101D6000002411E0002000F045F804000CE0012000
:101D700000F040F8040007E05C210A4B0A4AFF31FA
:101D80000A4800F0FFFB002400F08AF8044B01220F
:101D90001A70200010BD0024F6E70024F4E7C046C6
:101DA0002C01002050370008E036000820370008DA
:101DB00030B5FF24FF254A1E92B2002909D00378CE
:101DC00063400649CC5C6C400549CD5C1100013094
:101DD000F1E72802204380B230BDC046D03700086A
:101DE000D0380008024B00221A7001207047C0460C
:101DF00039010020034B01221A70034B1870012097
:101E00007047C04639010020380100200200064B0F
:101E10001878002806D0054B1B781370024B00225F
:101E20001A7001207047C046390100203801002097
:101E300010B5024B1B68984710BDC0464C030020EC
:101E400070B505000A4C0B4B23600023A360FFF71D
:101E5000EFFA0949FEF758F960603123E360074B58
:101E60001D802000FEF78AFC43425841C0B270BD7D
:101E70003C0100200020004040420F007C01002077
:101E800010B5044B1A88044B1A800448FEF75EFB19
:101E900010BDC0467C0100203A0100203C0100201A
:101EA00010B50248FEF75EFB10BDC0463C010020A5
:101EB00010B5FA208000FFF791FB0B4B1B681A69E5
:101EC000D2070CD5DA68D20709D5022252421A612C
:101ED000064A1388013B9BB21380002B00D010BD33
:101EE000FFF7A6FFFBE7C0463C0100203A010020B7
:101EF00010B50C0000280ED1154B1A68136820216C
:101F00008B431360002C14D1114B1A6813682021E5
:101F10008B43136010BD0F4B19880F4B18680022BC
:101F2000FFF734FC0A4B1A68136820210B43136037
:101F3000E8E7084B1988084B18680022FFF726FCD1
:101F4000034B1A68136820210B431360E2E7C04675
:101F5000840100207E0100208001002070B5294C02
:101F60000C2565610025A5612562E561E560656276
:101F7000002803D0012813D0002070BD2148224C36
:101F8000046022489024E405046021481024048061
:101F90001C484160082A0ED0092A17D00020ECE71F
:101FA00018481C4C046019489024E4050460184843
:101FB00002240480ECE7134A00219160012B1CD01D
:101FC000002B08D0022B13D00020D6E70D4A802129
:101FD00049019160F2E70B4B00221A6100230022B5
:101FE00000210848FEF7B8FE43425841C0B2C4E79A
:101FF000044B8022D2001A61F0E7024BC022D200CB
:102000001A61EBE7840100200038014080010020C4
:102010007E01002000440040024B1B6880B21885FE
:102020000120704784010020024B1B689B8C0370C9
:10203000012070478401002010B5134B1B688342B8
:1020400001D0002010BDDA69920602D51A68920606
:1020500007D4DA69120614D51B681B060CD40020BD
:10206000F0E70A4B1B689847074B1A6893690821E9
:102070000B4393610120E5E7054B1B68984701205E
:10208000E0E70020DEE7C046840100205003002086
:102090004803002070B50C000B88052B01D00320ED
:1020A00070BD43781B0281781943013189B2C2782F
:1020B000120203791A43531E9BB2144DAB4222D82D
:1020C00000232380013303702388013323805307C7
:1020D00013D0D508EDB20135EDB2861C45702388CA
:1020E0000133238000233000FFF730FC002807D1A4
:1020F00023885D1925800020D2E7D508EDB2ECE7F2
:1021000000F0BCF9CCE70320CAE7C046CE070000C8
:1021100000B583B00B88052B02D0032003B000BDAF
:1021200043781B0281781943013189B20379002B6E
:102130001BD1C278531EDBB2FD2B18D901AB002096
:102140005870FF2A0BD001AB00221A700123012224
:1021500001A8FFF7FBFB002804D10020DEE7FE3AD0
:102160001A70F3E700F08AF9D8E70320D6E70320D6
:10217000D4E70000F8B50C000B88052B29D943786B
:102180001B0281781943013189B2C27812020379A6
:102190001A43477953070CD0D308DBB20133DBB2C3
:1021A000551EADB20D4EB54215D8BB4204D003202A
:1021B00010E0D308DBB2F3E706300123FFF7C6FBDC
:1021C000002803D105232380002003E000F056F906
:1021D00000E00320F8BD0320FCE7C046AF07000085
:1021E00070B50C000B88052B01D0032070BD43781F
:1021F0001B0281781943013189B2C2781202037936
:102200001A43531E9BB2134DAB4221D800232380A7
:1022100002330370238801332380530712D0D5087B
:10222000EDB20135EDB2861C457023880133238061
:102230003000FFF78FFB002807D123885D19258028
:102240000020D3E7D508EDB2EDE700F017F9CDE7B0
:102250000320CBE7CE07000010B50B88052B01D07B
:10226000032010BD43781B0281781943013189B2E4
:10227000033001230122FFF76BFB002801D100206E
:10228000EFE700F0FBF8ECE770B50C000B88052BCE
:1022900021D943781B0281781943013189B2C3786F
:1022A0001B0202791A434579531E9BB2772B14D82F
:1022B0005300DBB2AB4201D003200DE00630012316
:1022C000FFF746FB002803D105232380002003E00D
:1022D00000F0D4F800E0032070BD0320FCE770B5E7
:1022E0000C000B88052B01D0032070BD43781B0226
:1022F00081781943013189B2027995B26B1E9BB284
:102300007C2B01D90320F0E70023238003330370E3
:10231000238801332380861C5200427023880133B6
:10232000238000232A003000FFF712FB002805D18C
:102330006D0023885D1925800020D6E700F09EF807
:10234000D3E7F8B504000D000B88092B48D9437872
:102350001B028178194301318EB2C7783F0203799D
:102360001F4343791B0281791943013189B2C37933
:102370001B02027A1A43407A7B1E9BB27C2B31D817
:10238000002A31D0792A31D85300834201D003206A
:1023900027E0012320000A30FFF7DAFA002803D0F3
:1023A00000281AD100201CE000232B801733237053
:1023B0002B8801332B80A01C7B0063702B8801339A
:1023C0002B8000233A003100FFF7C2FA0028E7D142
:1023D0007F002B88DF192F80E2E700F04FF800E044
:1023E0000020F8BD0320FCE70320FAE70320F8E70C
:1023F00070B50C000B88052B01D0032070BD43780D
:102400001B0281781943013189B2C5782D02037905
:102410001D436B1E9BB27B2B01D90320EEE70023EB
:10242000238004330370238801332380861C6B00D0
:1024300043702388013323802A003000FFF78CFA91
:10244000002805D16D0023885D1925800020D5E77F
:1024500000F014F8D2E7000070B50D000130054B14
:102460001C882200044900F0DFF801342C80002091
:1024700070BDC04614020020F4010020012805D0E0
:10248000002805D0072805D0042070470220FCE76B
:102490000020FAE70620F8E7134B1A6801210A43E7
:1024A0001A605A68114802405A601A68104802407F
:1024B0001A601A680F4802401A605A680E480240B3
:1024C0005A60DA6A0F208243DA621A6B0B480240C4
:1024D0001A631A6B802002431A635A6B8A435A6349
:1024E00000229A607047C046001002400CB8FF08F6
:1024F000FFFFF6FEFFFFFBFFFFFFC0FF6CFEFFFFCD
:102500001348854613480168090E134A914205D1C4
:1025100012481349016013481349016013481449D4
:10252000144A002302E0D458C4500433C4188C4227
:10253000F9D3114A114C002301E013600432A24286
:10254000FBD3FFF7A9FF00F04BF8FDF70AFFFEE70A
:1025500000180020040000001F00000018100240B6
:102560000100000000000140000000000000002009
:10257000EC000020C43A0008EC0000206C040020AD
:10258000FEE7000030B51C00094B05001B6885B054
:10259000D868084B002A01D1074B1A000292019318
:1025A00000912B002200054900F00AF800F0EEFB34
:1025B00088000020E8390008233A0008F5390008AF
:1025C0000EB403B5010003AB044804CB00680193CB
:1025D00000F062F802B008BC03B018478800002081
:1025E00070B500260C4D0D4C641BA410A64209D1F9
:1025F000002601F03DF80A4D0A4C641BA410A642C7
:1026000005D170BDB300EB5898470136EEE7B30033
:10261000EB5898470136F2E7BC3A0008BC3A00088C
:10262000BC3A0008C03A0008002310B59A4200D115
:1026300010BDCC5CC4540133F8E703001218934278
:1026400000D1704719700133F9E7936810B5013B69
:102650009360002B04DA9469A34207DB0A2905D0B2
:102660001368581C10601970080010BD00F0C2FA01
:102670000100F9E7F8B506000F001400D518AC42C8
:1026800001D1002007E021783A003000FFF7DDFF9C
:102690000134431CF3D1F8BDF0B5A1B007000D0023
:1026A00003921E00002804D08369002B01D100F0A2
:1026B000A1FC8C4B9D421CD17D686B6EDB0705D461
:1026C000AB899B0502D4A86D00F036FDAB891B07D2
:1026D00002D52B69002B1DD12900380000F0E0FA4B
:1026E000002817D06B6EDB070DD50120404221B0CA
:1026F000F0BD7D4B9D4201D1BD68DEE77B4B9D4225
:10270000DBD1FD68D9E7AB899B05EED4A86D00F05D
:1027100014FDEAE7002308AC6361203363761033CD
:10272000A3760796039E3378002B01D0252B4BD13F
:10273000039BF31A05930CD0039A29003800FFF786
:1027400099FF431C00D1B5E06269059B9446634440
:1027500063613378002B00D1ACE00122731C03933A
:1027600000235242626004A9543252182360E3608D
:10277000A3601370A365039B052219785C4800F0E1
:1027800049FD039B5E1C002820D12268D30604D596
:10279000532304A95B1820211970130704D5532370
:1027A00004A95B182B211970039B1B782A2B16D0C8
:1027B0000021E368039E3278701C303A8446092A6F
:1027C0004FD9002911D117E00136ACE7484B2268F8
:1027D000C01A01238340134323600396CBE7079B72
:1027E000191D1B680791002B01DB0B9304E05B4272
:1027F000E36002231343236033782E2B0AD17378CE
:102800002A2B37D1079B02361A1D1B680792002B13
:102810002DDB099331780322364800F0FBFC0028B9
:1028200007D0344B2268C01A40238340134301363B
:1028300023603178731C06222F480393217600F021
:10284000E9FC002845D02D4B002B27D10722079B00
:1028500007339343083307936369049A9B186361B2
:1028600060E70A214B4366469B180939A3E7012319
:102870005B42CEE700231A00013663603178701C9A
:1028800030398446092903D9002BC3D00992C1E706
:102890000A235A4366465218093BEFE707AB0093F9
:1028A0002A00174B2100380000E000BF0490049B71
:1028B0000133D1D16B6EDB0705D4AB899B0502D404
:1028C000A86D00F03AFCAB895B0600D50DE70D98CA
:1028D0000DE707AB00932A00094B2100380000F0F8
:1028E0007FF8E3E77C3A00089C3A00085C3A00086D
:1028F000283A00082E3A0008323A0008000000008A
:1029000075260008F7B5150001938A680B690090D9
:102910000C00934200DA130022002B60433212783D
:10292000002A01D001332B6023689B0602D52B6857
:1029300002332B60062723681F4027D02300433330
:102940001B785A1E93412268920630D422000199C6
:1029500043320098089EB047431C25D006232068C8
:102960002A68E16803400025042B03D18D1AEB434C
:10297000DB171D40A3682269934201DD9B1AED1805
:102980000027BD4220D1002010E00137E3682A680B
:102990009B1ABB42D2DD2200012319320199009813
:1029A000089EB047431CF0D101204042FEBD3020BC
:1029B000E1184331087021005A1C45310978A218EA
:1029C000433202331170C1E7220001231A32019908
:1029D0000098089EB047431CE6D00137D1E70000BD
:1029E000F0B58BB006920A0043320793059004922B
:1029F0000A7E0C00109B6E2A00D1AFE020D8632A1B
:102A000035D008D8002A00D1B5E0582A51D0260088
:102A10004236327032E0642A01D0692AF7D119684F
:102A200020680A1D05062BD50D681A60002D03DAF3
:102A30002D23049A6D4213706C4B0A27039352E0C6
:102A4000732A00D19BE008D86F2A1FD0702ADED1EC
:102A5000202209680A43226003E0752A16D0782AEA
:102A6000D5D12200782145321170614A24E0260038
:102A70001A684236111D19601368337001238CE007
:102A80000D681A604106D1D52DB2CFE719682568C7
:102A9000081D18602E0601D50D6803E06D06FBD5F4
:102AA0000D68ADB2514B0A2703936F2A17D108273F
:102AB00015E045310A704D4A03921A68216820CA10
:102AC0001A60080644D5CB0702D52023194321609C
:102AD0001027002D03D1202322689A43226023006F
:102AE000002243331A706368A360002B03DB0422C7
:102AF000216891432160002D02D1049E002B0AD051
:102B0000049E39002800FDF785FB039B013E5B5CBA
:102B10003370AF4220D9082F09D12368DB0706D5CF
:102B200063682269934202DC3023013E3370049BC8
:102B30009B1B2361079B09AA00932100069B059814
:102B4000FFF7E0FE431C2DD1012040420BB0F0BD49
:102B50004806B8D5ADB2B6E70500D2E71A680D68E9
:102B6000101D4969186013682E0601D5196002E02E
:102B70006D06FBD519800023049E2361DAE71A68ED
:102B8000111D1960166800216268300000F042FBD8
:102B9000002801D0801B6060636823610023049AD1
:102BA0001370C7E72369320006990598079DA84767
:102BB000431CC9D023689B0715D4099BE068984241
:102BC000C4DA1800C2E722000123193206990598D9
:102BD000079EB047431CB7D00135E368099A9B1A9A
:102BE000AB42F0DCE9E70025F7E7C046393A0008D8
:102BF0004A3A0008F8B505000E001400002804D079
:102C00008369002B01D100F0F5F9224B9C422ED1B3
:102C10006C68A369A360A3891B0732D52369002BC5
:102C20002FD023682269F7B2981A6369F6B28342FB
:102C300005DC2100280000F03BF9002827D1A3681B
:102C40000130013BA36023685A1C22601F70636936
:102C5000834204D0A389DB0707D50A2E05D12100C2
:102C6000280000F025F9002811D13000F8BD0A4BEA
:102C70009C4201D1AC68CCE7084B9C42C9D1EC68BE
:102C8000C7E72100280000F00BF80028C9D0012672
:102C90007642EAE77C3A00089C3A00085C3A000871
:102CA000364B70B51D6806000C00002D05D0AB69D1
:102CB000002B02D1280000F09DF9314B9C420FD12E
:102CC0006C680C23E25E93B219072DD4D90611D497
:102CD00009230120336037331343A381404270BD81
:102CE000284B9C4201D1AC68EBE7274B9C42E8D1D2
:102CF000EC68E6E75B0713D5616B002908D0230079
:102D00004433994202D0300000F090FA002363630C
:102D10002422A3899343A381002363602369236052
:102D20000823A2891343A3812369002B0BD1A0217F
:102D30008022A389890092000B40934203D0210096
:102D4000300000F023FA0123A289134011D00023A0
:102D5000A36063695B42A361002023698342BED103
:102D60000C23E25E1306BAD540231343A381013836
:102D7000B5E7920700D46369A360EDE788000020FF
:102D80007C3A00089C3A00085C3A000810B506201E
:102D900000F030FB012000F069FC0000F7B58A89E3
:102DA00005000C00130760D44B68002B04DC0B6C8F
:102DB000002B01DC0020FEBDE76A002FFAD00023C3
:102DC0002E682B6080235B011A4034D0606DA3898C
:102DD0005B0706D56368C01A636B002B01D0236CB8
:102DE000C01A0200216A00232800E76AB847A189B7
:102DF000431C06D12B681D2B31D82C4ADA40D3074F
:102E00002DD50023636023692360CB0405D5431CC3
:102E100002D12B68002B00D16065616B2E60002908
:102E2000C8D023004433994202D0280000F0FEF9B4
:102E300000206063BFE70123216A2800B847431CD4
:102E4000C5D12B68002BC2D01D2B01D0162B01D170
:102E50002E60AFE74023A2891343A381ABE7402351
:102E60000B430120A3814042A5E70F69002FA1D0A9
:102E70000B680F60DB1B01930023920700D14B69A5
:102E8000A360019B002B00DC94E7019B3A00216AC0
:102E90002800A66AB047002803DC4023A289134318
:102EA000DFE7019B3F181B1A0193EAE7010040206E
:102EB0000B6970B505000C00002B02D1002528001D
:102EC00070BD002804D08369002B01D100F092F876
:102ED000144B9C421BD16C680C22A35E002BEDD0DE
:102EE000626ED20704D49B0502D4A06D00F024F9D1
:102EF00028002100FFF752FF636E0500DB07DED4D8
:102F0000A3899B05DBD4A06D00F017F9D7E7064B2A
:102F10009C4201D1AC68DFE7044B9C42DCD1EC68F9
:102F2000DAE7C0467C3A00089C3A00085C3A0008A0
:102F3000002310B504000360436083608181436611
:102F4000C281036143618361190008225C30FFF78D
:102F500074FB054B24626362044BA362044BE3627F
:102F6000044B236310BDC046353400085D340008AF
:102F700095340008C134000810B5024900F0BAF8D1
:102F800010BDC046B12E000870B568254A1E5543D5
:102F90000E002900743100F093F9041E08D00021BE
:102FA0002A00016046600C30A0606832FFF745FBE4
:102FB000200070BD10B5024800F0BEF810BDC0463C
:102FC0006404002010B5024800F0B7F810BDC046F8
:102FD0006404002010B5024800F0AEF810BDC046F1
:102FE0005F04002010B5024800F0A7F810BDC046ED
:102FF0005F04002013B50400FFF7ECFFA369002B6A
:1030000002D0FFF7EFFF13BDA364E3642365134B06
:10301000134A1B68A2620193A34201D10123A36159
:10302000200000F01FF86060200000F01BF8A06096
:10303000200000F017F80022E06004216068FFF72C
:1030400077FF01220921A068FFF772FF02221221F7
:10305000E068FFF76DFF0123A361D2E7243A00087F
:10306000792F0008F8B50600FFF7A4FF1F4B1D6875
:10307000AB69002B02D12800FFF7BCFF4835AC68D4
:103080006B68013B04D52B68002B22D02D68F6E736
:103090000C22A75E002F1AD12000154B5830E36098
:1030A000676600F048F8FFF78DFF20002760A760F3
:1030B000676027616761A761082239005C30FFF70C
:1030C000BCFA6763A763A764E7642000F8BD6834AF
:1030D000D7E704213000FFF757FF041E2860D5D141
:1030E000FFF770FF0C233360EFE7C046243A000877
:1030F0000100FFFFF7B504000700002601914834E6
:10310000002C01D13000FEBD6368A5680093009BD0
:10311000013B009301D52468F2E7AB89012B08D964
:103120000E22AB5E013304D029003800019B984782
:1031300006436835EBE770477047704770B50E007F
:103140001D000E23C95E96B01400002907DA002383
:103150002B60B3891B0611D48023DB000FE06A4685
:1031600000F0DAF90028F2DBF022019B1202134092
:10317000054A9B185A4253412B60EDE7402300203B
:10318000236016B070BDC04600E0FFFFF7B5022611
:103190008B8905000C00334206D02300473323609F
:1031A000236101236361F7BD01AB6A46FFF7C6FFE8
:1031B00000990700280000F083F8002808D10C22AD
:1031C000A35E9A05EFD4032293431E43A681E4E74E
:1031D0000F4BAB628023A28920601343A381009B25
:1031E00020616361019B002B0DD00E23E15E28005E
:1031F00000F0A4F9002806D00322A38993431A0003
:1032000001231343A381A0893843A081CBE7C046A3
:10321000792F0008C9B28218904201D1002070476E
:1032200003788B42FBD00130F6E7000070B5050053
:10323000002910D00C1F2368002B00DAE4182800A6
:1032400000F0A2F91D4A1368002B05D163601460D9
:10325000280000F0A1F970BDA34209D921686018C7
:103260008342F3D118685B6841182160EEE71300D0
:103270005A68002A01D0A242F9D919685818A04208
:103280000BD120680918581819608242E0D11068E3
:103290005268411819605A60DAE7A04202D90C233B
:1032A0002B60D5E721686018824203D1106852680C
:1032B0004118216062605C60CAE7C04618020020C5
:1032C000F8B50323CD1C9D43083506000C2D1FD2F5
:1032D0000C25A9421ED8300000F056F925490A688D
:1032E0001400002C1AD1244F3B68002B04D121007C
:1032F000300000F043F838602900300000F03EF85C
:10330000431C2AD10C233000336000F045F903E060
:10331000002DDEDA0C2333600020F8BD23685B1B30
:1033200018D40B2B03D92360E418256003E06368ED
:10333000A2420DD10B60300000F02EF920000722D0
:103340000B30231D9043C21AE7D01B1AA350E4E7A9
:103350005360F0E722006468C3E70323C41C9C4366
:10336000A042E2D0211A300000F008F8431CDCD162
:10337000C8E7C046180200201C020020002370B5D8
:10338000064C05000800236000F05AF9431C03D1E5
:103390002368002B00D02B6070BDC046680400205D
:1033A00070B504000D001F2904D916230360012005
:1033B000404270BD436C002B04D08A009B181A68F1
:1033C000002A08D1200000F031F82A000100200076
:1033D00000F01AF8EDE70020012AEAD0511C03D1D1
:1033E000162301302360E4E7002428001C60904786
:1033F0002000DEE710B5034B01001868FFF7D0FF8F
:1034000010BDC04688000020002370B5064C0500A2
:1034100008001100236000F0FBF8431C03D123686F
:10342000002B00D02B6070BD6804002010B500F0A8
:10343000DFF810BD70B50C000E25495F00F0B4F840
:10344000002803DB636D1B18636570BDA389024A06
:103450001340A381F9E7C046FFEFFFFFF8B51F0057
:103460008B8905000C001600DB0505D50E23C95E0F
:103470000022022300F074F8A389054A28001340B3
:10348000A38132000E23E15E3B0000F01FF8F8BD7F
:10349000FFEFFFFF70B50C000E25495F00F060F8EC
:1034A000A389421C03D1054A1340A38170BD802229
:1034B00052011343A3816065F8E7C046FFEFFFFFA9
:1034C00010B50E23C95E00F015F810BD70B50500EB
:1034D000080011000022064C22601A0000F0BEF81D
:1034E000431C03D12368002B00D02B6070BDC04665
:1034F00068040020002370B5064C05000800236016
:1035000000F066F8431C03D12368002B00D02B6029
:1035100070BDC04668040020002370B5064C05004D
:1035200008001100236000F05BF8431C03D12368FE
:10353000002B00D02B6070BD68040020002370B504
:10354000064C05000800236000F05AF8431C03D124
:103550002368002B00D02B6070BDC046680400209B
:1035600070B50500080011000022064C22601A0008
:1035700000F056F8431C03D12368002B00D02B60C9
:1035800070BDC0466804002010B50248FFF7D4FDA6
:1035900010BDC0466004002010B50248FFF7CDFD05
:1035A00010BDC0466004002070B505000800110081
:1035B0000022064C22601A0000F03AF8431C03D1A6
:1035C0002368002B00D02B6070BDC046680400202B
:1035D00058220120014B40421A60704768040020C5
:1035E00058220120014B40421A60704768040020B5
:1035F00058220120014B40421A60704768040020A5
:103600005822024B00201A607047C0466804002010
:1036100058220120014B40421A6070476804002084
:1036200058220120014B40421A6070476804002074
:1036300058220120014B40421A6070476804002064
:10364000044A1368002B03D0181810601800704744
:10365000014BF9E7200200207004002058220120CD
:10366000014B40421A60704768040020FEE7C046E4
:10367000F8B5C046F8BC08BC9E467047F8B5C046D1
:08368000F8BC08BC9E4670472F
:1036880002030405060708090A0B0C0D0E0F10109B
:103698000102030405060708090A0B0C0D0E0F109A
:1036A800654D425254555265636569766500000060
:1036B800784D425254555265636569766546534D57
:1036C80000000000784D425254555472616E736D7B
:1036D800697446534D000000784D42525455546960
:1036E8006D65725433354578706972656400000001
:1036F8007573526376427566666572506F73203CC7
:10370800204D425F5345525F5044555F53495A45D7
:103718005F4D4158000000006D6F646275732F7231
:1037280074752F6D627274752E63000065536E6434
:103738005374617465203D3D2053544154455F5492
:10374800585F49444C4500002820655263765374FD
:10375800617465203D3D2053544154455F52585F84
:10376800494E49542029207C7C20282065526376C4
:103778005374617465203D3D2053544154455F5254
:10378800585F5243562029207C7C202820655263AC
:10379800765374617465203D3D2053544154455F10
:1037A80052585F4552524F522029000065526376A5
:1037B8005374617465203D3D2053544154455F5214
:1037C800585F49444C45000000C1814001C0804118
:1037D80001C0804100C1814001C0804100C18140D9
:1037E80000C1814001C0804101C0804100C18140C9
:1037F80000C1814001C0804100C1814001C08041B9
:1038080001C0804100C1814001C0804100C18140A8
:1038180000C1814001C0804100C1814001C0804198
:1038280001C0804100C1814000C1814001C0804188
:1038380001C0804100C1814001C0804100C1814078
:1038480000C1814001C0804101C0804100C1814068
:1038580000C1814001C0804100C1814001C0804158
:1038680001C0804100C1814000C1814001C0804148
:1038780001C0804100C1814001C0804100C1814038
:1038880000C1814001C0804100C1814001C0804128
:1038980001C0804100C1814001C0804100C1814018
:1038A80000C1814001C0804101C0804100C1814008
:1038B80000C1814001C0804100C1814001C08041F8
:1038C80001C0804100C1814000C0C101C30302C2E0
:1038D800C60607C705C5C404CC0C0DCD0FCFCE0E48
:1038E8000ACACB0BC90908C8D81819D91BDBDA1AB8
:1038F8001EDEDF1FDD1D1CDC14D4D515D71716D628
:10390800D21213D311D1D010F03031F133F3F23297
:1039180036F6F737F53534F43CFCFD3DFF3F3EFE07
:10392800FA3A3BFB39F9F83828E8E929EB2B2AEA77
:10393800EE2E2FEF2DEDEC2CE42425E527E7E626E7
:1039480022E2E323E12120E0A06061A163A3A26257
:1039580066A6A767A56564A46CACAD6DAF6F6EAEC7
:10396800AA6A6BAB69A9A86878B8B979BB7B7ABA37
:10397800BE7E7FBF7DBDBC7CB47475B577B7B676A7
:1039880072B2B373B17170B0509091519353529217
:1039980096565797559594549C5C5D9D5F9F9E5E87
:1039A8005A9A9B5B99595898884849894B8B8A4AF7
:1039B8004E8E8F4F8D4D4C8C448485458747468667
:1039C80082424383418180400000000000000000E3
:1039D80001020304060708090000000001020304AD
:1039E8002C2066756E6374696F6E3A20006173737C
:1039F800657274696F6E2022257322206661696C76
:103A080065643A2066696C6520222573222C206C37
:103A1800696E65202564257325730A008C000020D3
:103A2800232D302B2000686C4C006566674546479F
:103A38000030313233343536373839414243444522
:103A48004600303132333435363738396162636491
:103A58006566000000000000000000000000000093
:103A6800000000000000000000000000000000004E
:103A7800000000000000000000000000000000003E
:103A8800000000000000000000000000000000002E
:103A9800000000000000000000000000000000001E
:103AA800000000000000000000000000000000000E
:043AB800000000000A
:043ABC00E900000815
:043AC000C100000839
:103AC4000200000011000000592400080400000056
:103AD400F123000803000000DF22000810000000AA
:103AE400892200080600000059220008170000007F
:103AF4004323000801000000952000080500000091
:103B0400112100080F0000007521000802000000C8
:103B1400E121000800000000000000000000000097
:103B24000000000000000000000000000000000091
:103B34000000000000000000000000000000000081
:103B44000000000000127A008C0000200000000039
:103B54007C3A00089C3A00085C3A00080000000027
:103B64000000000000000000000000000000000051
:103B74000000000000000000000000000000000041
:103B84000000000000000000000000000000000031
:103B94000000000000000000000000000000000021
:0C3BA40000000000000000000000000015
:0400000508002501C9
:00000001FF
