:020000040800F2
:1000000000180020DD190008350500083705000834
:1000100000000000000000000000000000000000E0
:10002000000000000000000000000000390500088A
:1000300000000000000000003B0500083D0500082E
:100040005D1A0008000000005D1A00085D1A000833
:100050005D1A00085D1A00085D1A00085D1A0008A4
:10006000000000005D1A00085D1A00085D1A000813
:100070005D1A00085D1A00085D1A00080000000003
:100080005D1A000800000000000000005D1A000872
:10009000000000005D1A00085D1A00085D1A0008E3
:1000A000000000005D1A000800000000450500087F
:1000B0005505000800000000000000005D1A00085F
:1000C00010B5064C2378002B07D1054B002B02D02E
:1000D000044800E000BF0123237010BD440000204D
:1000E00000000000B81A0008044B10B5002B03D024
:1000F0000349044800E000BF10BDC04600000000F6
:1001000048000020B81A0008002243088B4274D32C
:1001100003098B425FD3030A8B4244D3030B8B4208
:1001200028D3030C8B420DD3FF22090212BA030C11
:100130008B4202D31212090265D0030B8B4219D3F2
:1001400000E0090AC30B8B4201D3CB03C01A524112
:10015000830B8B4201D38B03C01A5241430B8B425A
:1001600001D34B03C01A5241030B8B4201D30B0343
:10017000C01A5241C30A8B4201D3CB02C01A52416A
:10018000830A8B4201D38B02C01A5241430A8B422D
:1001900001D34B02C01A5241030A8B4201D30B0216
:1001A000C01A5241CDD2C3098B4201D3CB01C01A30
:1001B000524183098B4201D38B01C01A524143093A
:1001C0008B4201D34B01C01A524103098B4201D328
:1001D0000B01C01A5241C3088B4201D3CB00C01A95
:1001E000524183088B4201D38B00C01A524143080D
:1001F0008B4201D34B00C01A5241411A00D2014632
:10020000524110467047FFE701B5002000F006F8A4
:1002100002BDC0460029F7D076E770477047C04658
:1002200010B588B01422002103A801F03DFC134B47
:10023000596980208002014359615A690240019244
:10024000019A5A698021C9020A435A615B690B40CD
:100250000293029B0A4C00226021200001F003FB64
:10026000602303935F3B049300230593069303A944
:10027000200001F02BFA08B010BDC046001002406B
:100280000004004810B50948094B036096239B0100
:10029000436000238360C36003610C224261836179
:1002A000C3610362436200F0C3FB10BD680000201D
:1002B0000038014010B50A480A4B036096239B01A1
:1002C000436000238360C36003610C224261836149
:1002D000C361036243620022002100F0A3FD10BD50
:1002E000D80000200044004010B5064B984200D0D2
:1002F00010BD054B01221A7003320449014800F079
:10030000C3F9F5E7680000206000002048010020E4
:1003100070B51E2315224149414800F0F7FB002526
:10032000102408E01E2306223E493D4800F0EEFB63
:100330006400A4B20135032D0DDC90202100C0051E
:1003400001F08AFA0128EDD11E23062236493448ED
:1003500000F0DCFBECE7324C1E2302223349200084
:1003600000F0D4FB1E2316223149200000F0CEFB02
:1003700000258024640108E01E230622294928481C
:1003800000F0C4FB6400A4B20135032D0CDC210095
:10039000284801F061FA0128EED11E2306222249E5
:1003A0001F4800F0B3FBEDE71E23092222491C4839
:1003B00000F0ACFB40211F4801F04EFA01281ED08E
:1003C0001E2303221D49164800F0A0FB1E2307220E
:1003D0001B49134800F09AFB2021164801F03CFA13
:1003E000012813D01E23032214490D4800F08EFB70
:1003F0001E23032213490A4800F088FB70BD1E2308
:1004000002221149064800F081FBDFE71E23022289
:100410000D49034800F07AFBEAE7C04608000020D7
:10042000680000200000002038000020F41A0008B6
:100430002000002000040048F81A0008081B0008EB
:100440000C1B0008141B0008041B000830B597B0F3
:100450002C2200210BA801F027FB1022002106A866
:1004600001F022FB1422002101A801F01DFB022350
:100470000A9301250D950E330E930AA800F01CFD7A
:10048000072306930024079408940994002106A8E2
:1004900000F082FF0195039401A801F03FF817B026
:1004A00030BD000010B501F0E1F8FFF7CFFFFFF716
:1004B000B7FEFFF7E7FEFFF7FDFE042216491748D7
:1004C00000F0E2F8012200211B2001F0FBF91B20C3
:1004D00001F02AFA11E0642306221149114800F0C4
:1004E00015FB114B1870002803D120210F4801F093
:1004F000C0F9FA20800001F0D7F80D4B1B78012BD2
:10050000E9D1054B1B78742BE5D1FFF701FF024BB6
:1005100000221A70DFE7C046480100206800002072
:10052000F01A0008D80000206400002000040048F1
:10053000600000207047FEE77047704710B501F07B
:10054000A5F810BD10B5024800F0D8FB10BDC0469C
:100550006800002010B5024800F0D0FB10BDC04676
:10056000D800002082B00A4B996901221143996199
:1005700099690A400092009ADA69802149050A4384
:10058000DA61DB690B400193019B02B07047C04602
:100590000010024010B58AB004001422002105A802
:1005A00001F082FA23682C4A934204D02B4A9342EA
:1005B0002BD00AB010BD2A4B99698020C00101439D
:1005C00099619A6902400192019A5A6980218902CF
:1005D0000A435A615B690B400293029BC023DB0014
:1005E00005930223069301330893023B099390205D
:1005F00005A9C00501F06AF8002200211B2001F0C6
:1006000061F91B2001F090F9D3E7154BD9698022DD
:1006100092021143D961D969114003910399596933
:10062000114359615B691A400492049B0E230593A0
:100630000C3B069301330893023B0993902005A9D4
:10064000C00501F043F8002200211C2001F03AF916
:100650001C2001F069F9ACE700380140004400407B
:10066000001002400268136806490B4013600268DC
:1006700093682331FF318B4393606A232022C25455
:100680007047C046DFFEFFFF30B56A23C35C202BF6
:100690005AD100295AD0002A5AD083688024640194
:1006A000A34218D06824045D012C53D0682401258E
:1006B0000555416558214252023142528022520171
:1006C00093420FD0002B1CD10369002B15D15C3352
:1006D000FF22C25219E00469002CE3D1CC07E1D516
:1006E000012032E00369002B03D15C331A4AC25265
:1006F0000BE05C23FF22C25207E05C237F22C25240
:1007000003E080225205934213D00023C3666A227D
:1007100022218154023A83540268936821390B43A1
:1007200093600268116890235B000B431360002004
:100730000BE00369002B03D15C337F22C252E4E754
:100740005C233F22C252E0E7022030BD0120FCE7DB
:100750000120FAE70220F8E7FF0100007047704728
:1007600010B5406A00235A228352083A8352FFF799
:10077000F6FF10BD70B50400836802691343426937
:100780001343C269134301680A6863480240134374
:100790000B602268536861490B40E1680B4353606A
:1007A000A269236A1A4321688B685D48034013439A
:1007B0008B6025685B4B9D4220D05B4B9D422BD0CC
:1007C000102380221202E16991422FD0022B00D126
:1007D00087E000D871E0042B00D18EE0082B00D018
:1007E0007DE06168480880231B029C466044FFF757
:1007F0008BFC0004000CE860002043E04B4B1A6BBC
:1008000003231340012B09D0002B09D0022B09D060
:10081000032B09D01023D4E70023D2E70423D0E729
:100820000023CEE70823CCE70223CAE7022B2DD012
:100830000FD9042B35D0082B25D1636858088023A5
:100840005B029C4660446168FFF75EFC83B2002057
:100850000FE0002B0BD100F051FE400063685B08F5
:10086000C0186168FFF750FC83B2002001E001204E
:1008700000230F22190091435B10083A13400B43E9
:100880002268D36070BD01200023F2E76368580836
:10089000274B9C4660446168FFF736FC83B200201A
:1008A000E7E700F03FFD400063685B08C01861683F
:1008B000FFF72AFC83B20020DBE7002B0DD100F00C
:1008C0001DFE63685B08C0186168FFF71DFC2368A4
:1008D0000004000CD8600020D4E70120D2E70120FA
:1008E000D0E761684808134B9C466044FFF70CFC56
:1008F0000004000CE8600020C4E700F013FD63680A
:100900005B08C0186168FFF7FFFB23680004000C58
:10091000D8600020B6E7C046F369FFEFFFCFFFFFC6
:10092000FFF4FFFF00380140004400400010024087
:100930000024F40000127A00436ADB0706D502683F
:1009400053682C490B40816A0B435360436A9B07F1
:1009500006D50268536828490B40C16A0B435360AF
:10096000436A5B0706D50268536824490B40016B54
:100970000B435360436A1B0706D50268536820493E
:100980000B40416B0B435360436ADB0606D502689C
:1009900093681C490B40816B0B439360436A9B0631
:1009A00006D50268936818490B40C16B0B439360EE
:1009B000436A5B060BD50268536814490B40016C0F
:1009C0000B43536080235B03026C9A420AD0436A54
:1009D0001B0606D5026853680D490B40816C0B431A
:1009E00053607047026853680A490B40416C0B43DF
:1009F0005360ECE7FFFFFDFFFFFFFEFFFFFFFBFF84
:100A0000FF7FFFFFFFEFFFFFFFDFFFFFFFFFEFFFB6
:100A1000FFFFF7FFFFFF9FFF0023C366202269212E
:100A20004254013142544832835400207047000040
:100A300010B5041E30D06923C35C002B22D069237B
:100A40002422E2542268136801218B4313602000A2
:100A5000FFF790FE012814D0636A002B18D122689A
:100A600053680E490B4053602268936808218B43FA
:100A700093602268136807390B4313602000FFF767
:100A8000CBFF10BD68330022C254FFF783FDD6E7C9
:100A90002000FFF751FFE2E70120F2E7FFF7FFFF39
:100AA000F0B5C64600B506000C0017009846069D36
:100AB0003368DB6923401B1B5A425341BB421ED1A2
:100AC0006B1CF5D0002D05D000F0E8FD4346C01AA0
:100AD000A842EDD9326813680B490B4013603268A5
:100AE0009368A331FF318B43936020236922B35471
:100AF0000132B35448330022F254032000E00020B6
:100B000004BC9046F0BDC0465FFEFFFFF0B585B067
:100B100004000E0015001F006923C35C202B59D16F
:100B200000295AD0002A5AD080235B0182689A4259
:100B300013D06823E35C012B53D068230122E254D5
:100B40000023E36669332032E25400F0A7FD0390EE
:100B50005023E5520233E5520AE00369002BE8D145
:100B6000CB07E6D5012036E03378226813850136BD
:100B70005223E35A9BB2002B1CD05222A35A013BB2
:100B80009BB2A3520097039B002280212000FFF715
:100B900087FF002827D180235B01A2689A42E3D116
:100BA0002369002BE0D13388DB05DB0D2268138538
:100BB0000236DDE70097039B002240212000FFF76B
:100BC0006FFF002811D169232022E254013B00224B
:100BD000E25400E0022005B0F0BD0120FBE7012057
:100BE000F9E70220F7E70320F5E70320F3E769239D
:100BF000C35C212B2FD13133C35A9BB2002B0BD1B5
:100C00000268136880218B431360026813684039BF
:100C10000B43136000201FE080235B0182689A422F
:100C20000CD0C36C5A1CC2641B7802681385522214
:100C3000835A013B9BB2835200200DE00369002BD5
:100C4000EFD1C36C1B88DB05DB0D02681385C36C19
:100C50000233C364EBE70220704710B502681368E3
:100C600040218B43136069232022C254FFF776FD95
:100C7000002010BD10B55C23C25A0E33C35C222B7A
:100C800032D103689B8C9BB28021490184688C42DD
:100C90000ED0D2B2416D4C1C446513400B705A22E9
:100CA000835A013B9BB28352002B0BD0002010BD16
:100CB00001690029EDD11340426D1380436D023369
:100CC0004365ECE7026813680B490B401360026848
:100CD00093682331FF318B4393606A232022C254EF
:100CE000FFF702FB0020E2E70268936908210B434B
:100CF00093610220DBE7C046DFFEFFFF70B5040012
:100D00000168CB6908680F221A4003D19D0601D5FE
:100D1000850614D48D68002A06D001222A4012D1FB
:100D200090256D0028420ED11A0602D5020600D584
:100D30006DE05B0602D5430600D56CE070BD200077
:100D4000FFF798FFFAE7DD0706D5C50504D50125AD
:100D50000D62E16E2943E166990708D5002A06D0A5
:100D6000216802250D62E16E02352943E1665907CB
:100D700008D5002A06D0216804250D62E16E023DE7
:100D80002943E166190709D5810601D4002A05D057
:100D9000226808211162E26E0A43E266E26E002ACE
:100DA000CCD09B0601D583061FD4E36E1B0703D46A
:100DB00023689B685B0624D52000FFF753FC23685B
:100DC0009A68520619D59A6840218A439A60636EE0
:100DD000002B0ED0124A5A63606E00F04EFD0028C0
:100DE000ACD0606E436B9847A8E72000FFF742FF46
:100DF000DBE72000FFF7B3FCA0E72000FFF7AFFC24
:100E00009CE72000FFF7ABFC0023E36696E7200099
:100E1000FFF7EDFE92E72000FFF71FFF8EE7C046C9
:100E200061070008F8B504000F0016001D00002837
:100E30003BD06923C35C002B2DD069232422E254CC
:100E40002268136801218B4313602000FFF792FC96
:100E500001281FD0636A002B23D122689168802368
:100E6000DB010B4393602268936811490B401F43D9
:100E7000976076052D042E4323681D680D4A1540A2
:100E80002E431E602268136801210B43136020006B
:100E9000FFF7C2FDF8BD68330022C254FFF77AFBAA
:100EA000CBE72000FFF748FDD7E70120F2E7C04677
:100EB000FF7FFFFFFFFF00FC70B582B004000368F6
:100EC000DB072BD5B34B5A680C231340042B1DD0E2
:100ED000B04B5A680C231340082B0ED06368012BCB
:100EE00041D0002B56D1AB4B1A68AB490A401A606F
:100EF0001A68AA490A401A603BE0A64B5B68C02208
:100F000052021340802252029342E7D1A14B1B6848
:100F10009B0303D56368002B00D1F1E123689B0795
:100F200077D59C4B5B680C221A4262D0994B5A6869
:100F30000C231340082B53D0E368002B00D18AE028
:100F4000944A136801210B43136000F0A7FB0500CE
:100F5000904B1B689B0775D400F0A0FB401B022838
:100F6000F6D90320D1E18B4A116880235B020B4341
:100F700013606368002B25D000F090FB0500854BC3
:100F80001B689B03CAD400F089FB401B6428F6D978
:100F90000320BAE1052B09D07E4B1A687E490A402E
:100FA0001A601A687D490A401A60E2E7794B1968AD
:100FB0008022D2020A431A601968802252020A4330
:100FC0001A60D6E700F06AFB0500724B1B689B03B2
:100FD000A4D500F063FB401B6428F6D9032094E1FC
:100FE0006C4B5B68C0225202134080221202934273
:100FF000A2D1684B1B689B0703D5E368012B00D087
:1010000080E164490B68F82293432269D2001343BC
:101010000B6023681B0744D5E369002B2ED05D4A83
:10102000536A01210B43536200F038FB0500594B12
:101030005B6A9B0735D400F031FB401B0228F6D9D0
:10104000032062E153490B68F82293432269D200DE
:1010500013430B60DDE74F4A136801218B43136094
:1010600000F01CFB05004B4B1B689B07D1D500F023
:1010700015FB401B0228F6D9032046E1454A536A76
:1010800001218B43536200F009FB0500414B5B6A71
:101090009B0706D500F002FB401B0228F6D903206F
:1010A00033E123685B0700D480E03A4BDB69DB0067
:1010B0001DD4384AD169802040050143D161D369EC
:1010C00003400193019B0125354B1B68DB0510D5BF
:1010D000A368012B21D0002B36D12E4B1A6A012197
:1010E0008A431A621A6A03318A431A621AE0002597
:1010F000EAE72B4A116880235B000B43136000F082
:10110000CDFA0600264B1B68DB05E1D400F0C6FAD9
:10111000801B6428F6D90320F7E01E4A136A0121D8
:101120000B431362A368002B24D000F0B7FA06002B
:10113000184B1B6A9B0737D400F0B0FA801B194B81
:101140009842F5D90320E0E0052B09D0114B1A6A2B
:1011500001218A431A621A6A03318A431A62E1E75B
:101160000C4B1A6A04210A431A621A6A03390A43A9
:101170001A62D7E700F092FA0600064B1B6A9B073B
:1011800012D500F08BFA801B064B9842F5D903204C
:10119000BBE0C04600100240FFFFFEFFFFFFFBFF69
:1011A0000070004088130000012D33D02368DB0657
:1011B00010D56369012B33D0053351D1554A536B98
:1011C00004218B435363536BF4318B43A169C900F2
:1011D0000B435363236A002B00D195E04D4A5168BD
:1011E0000C220A40082A00D191E0022B4FD0494A34
:1011F000136849490B40136000F050FA0400454B56
:101200001B689B017AD500F049FA001B0228F6D929
:1012100003207AE03F4AD36940490B40D361C5E7D8
:101220003C4B5A6B04210A435A635A6B03390A43F5
:101230005A6300F033FA0500364B5B6B9B0706D40C
:1012400000F02CFA401B0228F6D903205DE031495A
:101250004B6BF8229343A269D20013434B63B9E767
:101260002C4B5A6B04210A435A635A6B03398A4345
:101270005A6300F013FA0500264B5B6B9B07A9D558
:1012800000F00CFA401B0228F6D903203DE0214A69
:10129000136821490B40136000F000FA05001D4B54
:1012A0001B689B0106D500F0F9F9401B0228F6D90E
:1012B00003202AE0174BDA6A0F218A43E16A0A43C6
:1012C000DA625A6816490A40A16A606A01430A4311
:1012D0005A601968802252040A431A6000F0DEF94D
:1012E00004000C4B1B689B0106D400F0D7F9001BCF
:1012F0000228F6D9032008E0002006E0002004E0E0
:10130000012002E0012000E0002002B070BD0120B9
:10131000FBE7C04600100240FFFFFFFEFFFFFFEFAC
:10132000FF7FC2FF30B589B004AA184B180032C83D
:1013300032C2110002680A606A46103313CB13C22E
:101340001B681360124B5A680C231340082B02D001
:10135000104809B030BD910C0733194004A8445C13
:101360000B49C96A0B406946C95CC0235B021A403D
:1013700080235B029A4204D00648FEF7C5FE604314
:10138000E7E70448FEF7C0FE6043E2E7D01A000832
:101390000010024000127A0070B504000D004E4BA0
:1013A0001A68012313408B420AD24B490B68012271
:1013B00093432B430B600B681A40AA4200D084E091
:1013C00023689B0706D5454A5368F0218B43A168E3
:1013D0000B4353602368DB074CD56368012B21D096
:1013E000022B25D03D4A1268920700D46FE03B499A
:1013F0004A680320824313434B6000F04FF9060014
:101400006368012B1AD0022B26D0344B5B680C2268
:101410001A422FD000F042F9801B314B9842F4D988
:10142000032051E02D4A12689203E0D401204BE0E2
:101430002A4A12689201DAD4012045E0274B5A6803
:101440000C231340042B15D000F028F9801B244BEB
:101450009842F3D9032037E0204B5A680C231340FD
:10146000082B07D000F01AF9801B1D4B9842F3D9C6
:10147000032029E0184B1A6801231340AB4209D915
:1014800015490B68012293432B430B600B681A40EC
:10149000AA421ED123685B0706D5104A536811493A
:1014A0000B40E1680B435360FFF73CFF0B4B5A685E
:1014B00012090F2313400C4AD35CD8400B4B186021
:1014C000002000F0C1F8002070BD0120FCE70120E1
:1014D000FAE70120F8E7C046002002400010024071
:1014E00088130000FFF8FFFF181B000840000020D1
:1014F000014B18687047C0464000002010B5FFF748
:10150000F7FF044B5A68120A07231340024AD35CC0
:10151000D84010BD00100240281B000870B582B0F2
:1015200004000368DB0335D5414BDB69DB0052D493
:101530003F4AD169802040050143D161D36903400E
:101540000193019B01253B4B1B68DB0545D5384BBF
:101550001B6AC0229200134013D061680A409A426D
:101560000FD0334B186A344A02401E6A8021490268
:1015700031431962196A314E314019621A62C30748
:101580003FD42B4A136A2C490B4061680B4313620A
:10159000012D45D02368DB0706D5254A136B0321AF
:1015A0008B43A1680B43136323689B0606D5204A2F
:1015B000136B10218B43E1680B43136323689B0378
:1015C00033D51B4A136B80218B4321690B43136373
:1015D000002002B070BD0025B5E7164A11688023CF
:1015E0005B000B43136000F059F80600114B1B68B9
:1015F000DB05ACD400F052F8801B6428F6D9032038
:10160000E7E700F04BF80600094B1B6A9B07B8D4CC
:1016100000F044F8801B0A4B9842F5D90320D8E724
:10162000D36908490B40D361B4E70020D1E7C04635
:101630000010024000700040FFFCFFFFFFFFFEFFB4
:1016400088130000FFFFFFEF10B50400FFF750FF05
:10165000FA218900FEF758FD00F070F90120002200
:101660002100404200F02EF9002010BD10B5064ABE
:10167000136810210B4313600020FFF7E5FFFEF70E
:1016800071FF002010BDC04600200240024A1368CE
:10169000013313607047C0464C010020014B1868AD
:1016A0007047C0464C01002030B583B00190FFF771
:1016B000F5FF0500019C631C00D00134FFF7EEFF2D
:1016C000401BA042FAD303B030BD0000F0B5C646BF
:1016D00000B582B0002338E0032600E00026AE40CB
:1016E00035003D430234A400554EA551554C2568A4
:1016F0004246D4432E0026404A68D20302D54246D1
:1017000015432E004F4D2E606D682E0026404A680E
:10171000920302D5424615432E004A4D6E60AD68D5
:101720002E0026404A68D20202D5424615432E00BA
:10173000444DAE60ED682C404A68920202D54246A4
:101740002A4314003F4AD46001330A681400DC4085
:1017500071D001259D402A409046F5D04C68022C5E
:1017600001D0122C0ED1DC080834A400275807261B
:101770001E40B6000F22B24097430A69B2401600DD
:101780003E43265002685F0003242600BE40F64315
:10179000324094464A681440BC4062461443046098
:1017A0004C68621E012A03D9112C01D0122C10D1D1
:1017B00084683440A446CC68BC40624614438460CC
:1017C0004468AC434A681209012515409D402543F1
:1017D0004560C46826408C68BC403443C4604A6895
:1017E000D200B1D5184DAE6901242643AE61AD6972
:1017F0002C400194019C9C08A51CAD00104EAF59D3
:1018000003251D40AD000F26AE40B7439026F605D8
:10181000B04200D162E70D4EB04208D00C4EB0424B
:1018200007D00C4EB04200D156E7052657E70126F7
:1018300055E7022653E702B004BC9046F0BDC0460F
:101840000000014000040140001002400004004874
:1018500000080048000C004803690B4201D0012039
:1018600070470020FCE7002A01D081617047816247
:10187000FCE7436959404161704710B52123C35CBF
:10188000022B03D004238363012010BD0268136878
:101890000E218B43136001680A6801239A430A6092
:1018A000C26B1900046CA1405160212283541F3384
:1018B0000022C254436B002B02D098470020E4E77B
:1018C0000020E2E770B5002811DB8308144DC03317
:1018D0009B005C5903221040C000FC321600864079
:1018E000B44389010A40824014435C5170BDC0B2C8
:1018F0000F230340083B9B0806339B00094A94468C
:1019000063445D6803242040C000FF22140084402B
:10191000A54389010A4082402A435A60E6E7C0464F
:1019200000E100E000ED00E01F2318401E3B834073
:10193000014A13607047C04600E100E001380A4BDD
:1019400098420FD8094A50600948036A1B021B0AD3
:10195000C02109060B430362002393600733136021
:10196000002070470120FCE7FFFFFF0010E000E0CF
:1019700000ED00E0134B1A6801210A431A605A680F
:10198000114802405A601A68104802401A601A68EA
:101990000F4802401A605A680E4802405A60DA6ADC
:1019A0000F208243DA621A6B0B4802401A631A6BEB
:1019B000802002431A635A6B8A435A6300229A605A
:1019C0007047C046001002400CB8FF08FFFFF6FE4B
:1019D000FFFFFBFFFFFFC0FF6CFEFFFF13488546C4
:1019E00013480168090E134A914205D11248134960
:1019F000016013481349016013481449144A002335
:101A000002E0D458C4500433C4188C42F9D3114AAC
:101A1000114C002301E013600432A242FBD3FFF714
:101A2000A9FF00F01DF8FEF73DFDFEE700180020BD
:101A3000040000001F000000181002400100000018
:101A400000000140000000000000002044000020D1
:101A5000381B00084400002050010020FEE7000071
:101A600070B500260C4D0D4C641BA410A64209D184
:101A7000002600F021F80A4D0A4C641BA410A6426F
:101A800005D170BDB300EB5898470136EEE7B300BF
:101A9000EB5898470136F2E7301B0008301B00086E
:101AA000301B0008341B000803001218934200D1B9
:101AB000704719700133F9E7F8B5C046F8BC08BCA7
:101AC0009E467047F8B5C046F8BC08BC9E467047B5
:101AD00002030405060708090A0B0C0D0E0F10106F
:101AE0000102030405060708090A0B0C0D0E0F106E
:101AF000746573740D0A00000D0A477265656E3ACD
:101B0000200000006F6E00006F6666000D0A5265CF
:101B1000643A20000D0A0A000000000000000000E6
:101B20000102030406070809000000000102030483
:041B3000E9000008C0
:041B3400C1000008E4
:101B380063202020200000005041342020504135EF
:101B4800202050413620205041370D0A0000000067
:101B580050423132205042313320504231342050EB
:101B68004231350D0A0000006F20202020000000BF
:041B780000127A00DD
:04000005080019DDF9
:00000001FF
