:020000040800F2
:100000000018002041190008990300089B0300080C
:1000100000000000000000000000000000000000E0
:100020000000000000000000000000009D03000828
:1000300000000000000000009F030008A10300086A
:10004000C119000800000000C1190008C11900080A
:10005000C1190008C1190008C1190008C119000818
:1000600000000000C1190008C1190008C1190008EA
:10007000C1190008C1190008C119000800000000DA
:10008000C11900080000000000000000A9030008DA
:1000900000000000C1190008C1190008C1190008BA
:1000A00000000000C119000800000000B9030008AA
:1000B000C90300080000000000000000C11900088A
:1000C00010B5064C2378002B07D1054B002B02D02E
:1000D000044800E000BF0123237010BD040000208D
:1000E000000000001C1A0008044B10B5002B03D0C0
:1000F0000349044800E000BF10BDC04600000000F6
:10010000080000201C1A0008002243088B4274D308
:1001100003098B425FD3030A8B4244D3030B8B4208
:1001200028D3030C8B420DD3FF22090212BA030C11
:100130008B4202D31212090265D0030B8B4219D3F2
:1001400000E0090AC30B8B4201D3CB03C01A524112
:10015000830B8B4201D38B03C01A5241430B8B425A
:1001600001D34B03C01A5241030B8B4201D30B0343
:10017000C01A5241C30A8B4201D3CB02C01A52416A
:10018000830A8B4201D38B02C01A5241430A8B422D
:1001900001D34B02C01A5241030A8B4201D30B0216
:1001A000C01A5241CDD2C3098B4201D3CB01C01A30
:1001B000524183098B4201D38B01C01A524143093A
:1001C0008B4201D34B01C01A524103098B4201D328
:1001D0000B01C01A5241C3088B4201D3CB00C01A95
:1001E000524183088B4201D38B00C01A524143080D
:1001F0008B4201D34B00C01A5241411A00D2014632
:10020000524110467047FFE701B5002000F006F8A4
:1002100002BDC0460029F7D076E770477047C04658
:1002200010B588B01422002103A801F0EFFB134B96
:10023000596980208002014359615A690240019244
:10024000019A5A698021C9020A435A615B690B40CD
:100250000293029B0A4C00226021200001F05AFA0E
:10026000602303935F3B049300230593069303A944
:10027000200001F089F908B010BDC046001002400E
:100280000004004810B50948094B036096239B0100
:10029000436000238360C36003610C224261836179
:1002A000C3610362436200F0D9FB10BDD800002097
:1002B0000038014010B50A480A4B036096239B01A1
:1002C000436000238360C36003610C224261836149
:1002D000C361036243620022002100F013FD10BDE0
:1002E000480100200044004010B50648064B03605A
:1002F000002343608360C3600361836100F014FAEC
:1003000010BDC046B80100200020004030B597B0B5
:100310002C2200210BA801F079FB1022002106A855
:1003200001F074FB1422002101A801F06FFB0223ED
:100330000A9301250D950E330E930AA800F02CFDAB
:10034000072306930024079408940994002106A823
:1003500000F092FF0195039401A801F04FF817B047
:1003600030BD10B501F0F2F8FFF7D0FFFFF758FFEE
:10037000FFF788FFFFF79EFFFFF7B6FF012200217E
:100380001B2001F0F3F91B2001F022FA142001F0E8
:1003900045FA01F063FAFEE77047FEE770477047E1
:1003A00010B501F0E3F810BD10B5024800F0CCF82C
:1003B00010BDC046B801002010B5024800F00EFC88
:1003C00010BDC046D800002010B5054801F056FA0F
:1003D000002800D010BD034800F000FCFAE7C0463A
:1003E000003801404801002082B00A4B996901227F
:1003F0001143996199690A400092009ADA69802153
:1004000049050A43DA61DB690B400193019B02B0A5
:100410007047C0460010024000B583B002680C4B24
:100420009A4201D003B000BD0A4AD1698020400041
:100430000143D161D36903400193019B0022002154
:10044000ED3801F093F9132001F0C2F9EAE7C04654
:10045000002000400010024010B58AB004001422B1
:10046000002105A801F0D2FA23682C4A934204D057
:100470002B4A93422BD00AB010BD2A4B9969802099
:10048000C001014399619A6902400192019A5A6937
:10049000802189020A435A615B690B400293029BE7
:1004A000C023DB0005930223069301330893023B2C
:1004B0000993902005A9C00501F066F800220021EB
:1004C0001B2001F053F91B2001F082F9D3E7154BF3
:1004D000D969802292021143D961D96911400391EF
:1004E00003995969114359615B691A400492049B4D
:1004F0000E2305930C3B069301330893023B0993AB
:10050000902005A9C00501F03FF8002200211C2021
:1005100001F02CF91C2001F05BF9ACE70038014038
:1005200000440040001002400368DA6801210A43D9
:10053000DA60026813680B4313600020704770474D
:10054000704770477047704710B5040003681A6918
:1005500092070FD5DA6892070CD5032252421A612E
:100560000123037703689B699B0763D0FFF7E9FFCB
:100570000023237723681A69520712D5DA685207D5
:100580000FD5052252421A610223237723689A6904
:10059000C0239B001A4253D02000FFF7D2FF002354
:1005A000237723681A69120710D5DA6812070DD568
:1005B000092252421A61042323772368DB699B07CF
:1005C00045D02000FFF7BDFF0023237723681A6979
:1005D000D20612D5DA68D2060FD5112252421A611C
:1005E000082323772368DA69C0239B001A4235D099
:1005F0002000FFF7A6FF0023237723681A69D2079C
:1006000002D5DA68D20730D423681A69120602D5F7
:10061000DA68120630D423681A69520602D5DA68FD
:10062000520630D423681A69920602D5DA68920617
:1006300030D410BDFFF784FF2000FFF783FF97E75A
:100640002000FFF77DFF2000FFF77CFFA7E72000D9
:10065000FFF776FF2000FFF775FFB5E72000FFF7F3
:100660006FFF2000FFF76EFFC5E7022252421A61BA
:100670002000FFF764FFC7E7812252421A61200081
:1006800000F06DF8C7E7412252421A612000FFF7DF
:100690005AFFC7E7212252421A61200000F05EF89B
:1006A000C7E7000003681A4A904202D0194A9042F4
:1006B00003D1702293434A681343154A90420BD0EA
:1006C000144A904208D0144A904205D0134A9042EE
:1006D00002D0134A904203D1124A1340CA6813430E
:1006E000802293434A69134303608B68C3620B689B
:1006F0008362074B984205D0084B984202D0084BC2
:10070000984201D10B690363012343617047C046DE
:10071000002C014000040040002000400044014043
:1007200000480140FFFCFFFF70B5041E14D03D23BC
:10073000C35C002B0AD03D2502236355210001C96B
:10074000FFF7B0FF01236355002070BD3C3300224A
:10075000C254FFF761FEEEE70120F6E770477047ED
:100760000268136806490B401360026893682331DE
:10077000FF318B4393606A232022C2547047C046E6
:10078000DFFEFFFF70477047704710B5406A0023D7
:100790005A228352083A8352FFF7F6FF10BD000039
:1007A00070B5040083680269134342691343C26948
:1007B000134301680A686348024013430B602268D0
:1007C000536861490B40E1680B435360A269236A97
:1007D0001A4321688B685D48034013438B6025688A
:1007E0005B4B9D4220D05B4B9D422BD0102380223F
:1007F0001202E16991422FD0022B00D187E000D88C
:1008000071E0042B00D18EE0082B00D07DE0616800
:10081000480880231B029C466044FFF775FC0004D7
:10082000000CE860002043E04B4B1A6B032313409D
:10083000012B09D0002B09D0022B09D0032B09D0A2
:100840001023D4E70023D2E70423D0E70023CEE728
:100850000823CCE70223CAE7022B2DD00FD9042BA3
:1008600035D0082B25D16368580880235B029C464D
:1008700060446168FFF748FC83B200200FE0002B62
:100880000BD100F0ABFD400063685B08C0186168E5
:10089000FFF73AFC83B2002001E0012000230F2281
:1008A000190091435B10083A13400B432268D36050
:1008B00070BD01200023F2E763685808274B9C466F
:1008C00060446168FFF720FC83B20020E7E700F096
:1008D00099FC400063685B08C0186168FFF714FC6E
:1008E00083B20020DBE7002B0DD100F077FD6368B9
:1008F0005B08C0186168FFF707FC23680004000C60
:10090000D8600020D4E70120D2E70120D0E7616859
:100910004808134B9C466044FFF7F6FB0004000CAC
:10092000E8600020C4E700F06DFC63685B08C01855
:100930006168FFF7E9FB23680004000CD860002021
:10094000B6E7C046F369FFEFFFCFFFFFFFF4FFFFFD
:100950000038014000440040001002400024F40030
:1009600000127A00436ADB0706D5026853682C49F7
:100970000B40816A0B435360436A9B0706D50268AC
:10098000536828490B40C16A0B435360436A5B07B5
:1009900006D50268536824490B40016B0B43536032
:1009A000436A1B0706D50268536820490B40416B18
:1009B0000B435360436ADB0606D5026893681C4903
:1009C0000B40816B0B439360436A9B0606D502681C
:1009D000936818490B40C16B0B439360436A5B06F5
:1009E0000BD50268536814490B40016C0B435360EC
:1009F00080235B03026C9A420AD0436A1B0606D529
:100A0000026853680D490B40816C0B43536070477B
:100A1000026853680A490B40416C0B435360ECE792
:100A2000FFFFFDFFFFFFFEFFFFFFFBFFFF7FFFFF5D
:100A3000FFEFFFFFFFDFFFFFFFFFEFFFFFFFF7FF0E
:100A4000FFFF9FFF0023C36620226921425401312A
:100A500042544832835400207047000010B5041EF1
:100A600030D06923C35C002B22D069232422E254B6
:100A70002268136801218B4313602000FFF790FE6A
:100A8000012814D0636A002B18D1226853680E49DC
:100A90000B4053602268936808218B43936022685F
:100AA000136807390B4313602000FFF7CBFF10BD1D
:100AB00068330022C254FFF7CFFCD6E72000FFF7CF
:100AC00051FFE2E70120F2E7FFF7FFFF6923C35C74
:100AD000212B2FD13133C35A9BB2002B0BD102688B
:100AE000136880218B4313600268136840390B43FD
:100AF000136000201FE080235B0182689A420CD0C3
:100B0000C36C5A1CC2641B78026813855222835A34
:100B1000013B9BB2835200200DE00369002BEFD113
:100B2000C36C1B88DB05DB0D02681385C36C0233C5
:100B3000C364EBE70220704710B5026813684021D8
:100B40008B43136069232022C254FFF71BFE002051
:100B500010BD000010B55C23C25A0E33C35C222BBB
:100B600032D103689B8C9BB28021490184688C42FE
:100B70000ED0D2B2416D4C1C446513400B705A220A
:100B8000835A013B9BB28352002B0BD0002010BD37
:100B900001690029EDD11340426D1380436D02338A
:100BA0004365ECE7026813680B490B401360026869
:100BB00093682331FF318B4393606A232022C25410
:100BC000FFF7E1FD0020E2E70268936908210B438B
:100BD00093610220DBE7C046DFFEFFFF70B5040033
:100BE0000168CB6908680F221A4003D19D0601D520
:100BF000850614D48D68002A06D001222A4012D11D
:100C000090256D0028420ED11A0602D5020600D5A5
:100C10006DE05B0602D5430600D56CE070BD200098
:100C2000FFF798FFFAE7DD0706D5C50504D50125CE
:100C30000D62E16E2943E166990708D5002A06D0C6
:100C4000216802250D62E16E02352943E1665907EC
:100C500008D5002A06D0216804250D62E16E023D08
:100C60002943E166190709D5810601D4002A05D078
:100C7000226808211162E26E0A43E266E26E002AEF
:100C8000CCD09B0601D583061FD4E36E1B0703D48B
:100C900023689B685B0624D52000FFF761FD23686D
:100CA0009A68520619D59A6840218A439A60636E01
:100CB000002B0ED0124A5A63606E00F031FD0028FE
:100CC000ACD0606E436B9847A8E72000FFF742FF67
:100CD000DBE72000FFF758FDA0E72000FFF754FDF9
:100CE0009CE72000FFF750FD0023E36696E7200015
:100CF000FFF7ECFE92E72000FFF71EFF8EE7C046ED
:100D00008B070008F8B504000F0016001D0000282E
:100D10003BD06923C35C002B2DD069232422E254ED
:100D20002268136801218B4313602000FFF738FD10
:100D300001281FD0636A002B23D122689168802389
:100D4000DB010B4393602268936811490B401F43FA
:100D5000976076052D042E4323681D680D4A1540C3
:100D60002E431E602268136801210B43136020008C
:100D7000FFF768FEF8BD68330022C254FFF76CFB32
:100D8000CBE72000FFF7EEFDD7E70120F2E7C046F2
:100D9000FF7FFFFFFFFF00FC70B582B00400036817
:100DA000DB072BD5B34B5A680C231340042B1DD003
:100DB000B04B5A680C231340082B0ED06368012BEC
:100DC00041D0002B56D1AB4B1A68AB490A401A6090
:100DD0001A68AA490A401A603BE0A64B5B68C02229
:100DE00052021340802252029342E7D1A14B1B686A
:100DF0009B0303D56368002B00D1F1E123689B07B7
:100E000077D59C4B5B680C221A4262D0994B5A688A
:100E10000C231340082B53D0E368002B00D18AE049
:100E2000944A136801210B43136000F0A7FB0500EF
:100E3000904B1B689B0775D400F0A0FB401B022859
:100E4000F6D90320D1E18B4A116880235B020B4362
:100E500013606368002B25D000F090FB0500854BE4
:100E60001B689B03CAD400F089FB401B6428F6D999
:100E70000320BAE1052B09D07E4B1A687E490A404F
:100E80001A601A687D490A401A60E2E7794B1968CE
:100E90008022D2020A431A601968802252020A4351
:100EA0001A60D6E700F06AFB0500724B1B689B03D3
:100EB000A4D500F063FB401B6428F6D9032094E11D
:100EC0006C4B5B68C0225202134080221202934294
:100ED000A2D1684B1B689B0703D5E368012B00D0A8
:100EE00080E164490B68F82293432269D2001343DE
:100EF0000B6023681B0744D5E369002B2ED05D4AA5
:100F0000536A01210B43536200F038FB0500594B33
:100F10005B6A9B0735D400F031FB401B0228F6D9F1
:100F2000032062E153490B68F82293432269D200FF
:100F300013430B60DDE74F4A136801218B431360B5
:100F400000F01CFB05004B4B1B689B07D1D500F044
:100F500015FB401B0228F6D9032046E1454A536A97
:100F600001218B43536200F009FB0500414B5B6A92
:100F70009B0706D500F002FB401B0228F6D9032090
:100F800033E123685B0700D480E03A4BDB69DB0088
:100F90001DD4384AD169802040050143D161D3690D
:100FA00003400193019B0125354B1B68DB0510D5E0
:100FB000A368012B21D0002B36D12E4B1A6A0121B8
:100FC0008A431A621A6A03318A431A621AE00025B8
:100FD000EAE72B4A116880235B000B43136000F0A3
:100FE000CDFA0600264B1B68DB05E1D400F0C6FAFB
:100FF000801B6428F6D90320F7E01E4A136A0121FA
:101000000B431362A368002B24D000F0B7FA06004C
:10101000184B1B6A9B0737D400F0B0FA801B194BA2
:101020009842F5D90320E0E0052B09D0114B1A6A4C
:1010300001218A431A621A6A03318A431A62E1E77C
:101040000C4B1A6A04210A431A621A6A03390A43CA
:101050001A62D7E700F092FA0600064B1B6A9B075C
:1010600012D500F08BFA801B064B9842F5D903206D
:10107000BBE0C04600100240FFFFFEFFFFFFFBFF8A
:101080000070004088130000012D33D02368DB0678
:1010900010D56369012B33D0053351D1554A536BB9
:1010A00004218B435363536BF4318B43A169C90013
:1010B0000B435363236A002B00D195E04D4A5168DE
:1010C0000C220A40082A00D191E0022B4FD0494A55
:1010D000136849490B40136000F050FA0400454B77
:1010E0001B689B017AD500F049FA001B0228F6D94B
:1010F00003207AE03F4AD36940490B40D361C5E7FA
:101100003C4B5A6B04210A435A635A6B03390A4316
:101110005A6300F033FA0500364B5B6B9B0706D42D
:1011200000F02CFA401B0228F6D903205DE031497B
:101130004B6BF8229343A269D20013434B63B9E788
:101140002C4B5A6B04210A435A635A6B03398A4366
:101150005A6300F013FA0500264B5B6B9B07A9D579
:1011600000F00CFA401B0228F6D903203DE0214A8A
:10117000136821490B40136000F000FA05001D4B75
:101180001B689B0106D500F0F9F9401B0228F6D92F
:1011900003202AE0174BDA6A0F218A43E16A0A43E7
:1011A000DA625A6816490A40A16A606A01430A4332
:1011B0005A601968802252040A431A6000F0DEF96E
:1011C00004000C4B1B689B0106D400F0D7F9001BF0
:1011D0000228F6D9032008E0002006E0002004E001
:1011E000012002E0012000E0002002B070BD0120DB
:1011F000FBE7C04600100240FFFFFFFEFFFFFFEFCE
:10120000FF7FC2FF30B589B004AA184B180032C85E
:1012100032C2110002680A606A46103313CB13C24F
:101220001B681360124B5A680C231340082B02D022
:10123000104809B030BD910C0733194004A8445C34
:101240000B49C96A0B406946C95CC0235B021A405E
:1012500080235B029A4204D00648FEF755FF6043A4
:10126000E7E70448FEF750FF6043E2E7341A00085E
:101270000010024000127A0070B504000D004E4BC1
:101280001A68012313408B420AD24B490B68012292
:1012900093432B430B600B681A40AA4200D084E0B2
:1012A00023689B0706D5454A5368F0218B43A16804
:1012B0000B4353602368DB074CD56368012B21D0B7
:1012C000022B25D03D4A1268920700D46FE03B49BB
:1012D0004A680320824313434B6000F04FF9060035
:1012E0006368012B1AD0022B26D0344B5B680C228A
:1012F0001A422FD000F042F9801B314B9842F4D9AA
:10130000032051E02D4A12689203E0D401204BE003
:101310002A4A12689201DAD4012045E0274B5A6824
:101320000C231340042B15D000F028F9801B244B0C
:101330009842F3D9032037E0204B5A680C2313401E
:10134000082B07D000F01AF9801B1D4B9842F3D9E7
:10135000032029E0184B1A6801231340AB4209D936
:1013600015490B68012293432B430B600B681A400D
:10137000AA421ED123685B0706D5104A536811495B
:101380000B40E1680B435360FFF73CFF0B4B5A687F
:1013900012090F2313400C4AD35CD8400B4B186042
:1013A000002000F0C1F8002070BD0120FCE7012002
:1013B000FAE70120F8E7C046002002400010024092
:1013C00088130000FFF8FFFF541A000800000020F7
:1013D000014B18687047C0460000002010B5FFF7A9
:1013E000F7FF044B5A68120A07231340024AD35CE2
:1013F000D84010BD00100240641A000870B582B0D9
:1014000004000368DB0335D5414BDB69DB0052D4B4
:101410003F4AD169802040050143D161D36903402F
:101420000193019B01253B4B1B68DB0545D5384BE0
:101430001B6AC0229200134013D061680A409A428E
:101440000FD0334B186A344A02401E6A8021490289
:1014500031431962196A314E314019621A62C30769
:101460003FD42B4A136A2C490B4061680B4313622B
:10147000012D45D02368DB0706D5254A136B0321D0
:101480008B43A1680B43136323689B0606D5204A50
:10149000136B10218B43E1680B43136323689B0399
:1014A00033D51B4A136B80218B4321690B43136394
:1014B000002002B070BD0025B5E7164A11688023F0
:1014C0005B000B43136000F059F80600114B1B68DA
:1014D000DB05ACD400F052F8801B6428F6D9032059
:1014E000E7E700F04BF80600094B1B6A9B07B8D4EE
:1014F00000F044F8801B0A4B9842F5D90320D8E746
:10150000D36908490B40D361B4E70020D1E7C04656
:101510000010024000700040FFFCFFFFFFFFFEFFD5
:1015200088130000FFFFFFEF10B50400FFF750FF26
:10153000FA218900FEF7E8FD00F054F901200022AD
:101540002100404200F012F9002010BD10B5064AFB
:10155000136810210B4313600020FFF7E5FFFEF72F
:1015600043FF002010BDC04600200240024A13681D
:10157000013313607047C046F8010020014B186822
:101580007047C046F8010020F0B5C64600B582B0ED
:10159000002338E0032600E00026AE4035003D433E
:1015A0000234A400554EA551554C25684246D443FB
:1015B0002E0026404A68D20302D5424615432E002B
:1015C0004F4D2E606D682E0026404A68920302D56A
:1015D000424615432E004A4D6E60AD682E002640EF
:1015E0004A68D20202D5424615432E00444DAE60F1
:1015F000ED682C404A68920202D542462A43140004
:101600003F4AD46001330A681400DC4071D00125E0
:101610009D402A409046F5D04C68022C01D0122CF7
:101620000ED1DC080834A400275807261E40B60057
:101630000F22B24097430A69B24016003E4326503B
:1016400002685F0003242600BE40F6433240944601
:101650004A681440BC406246144304604C68621EF1
:10166000012A03D9112C01D0122C10D184683440E6
:10167000A446CC68BC406246144384604468AC43D2
:101680004A681209012515409D4025434560C468FC
:1016900026408C68BC403443C4604A68D200B1D54F
:1016A000184DAE6901242643AE61AD692C4001940A
:1016B000019C9C08A51CAD00104EAF5903251D4090
:1016C000AD000F26AE40B7439026F605B04200D1DC
:1016D00062E70D4EB04208D00C4EB04207D00C4E1F
:1016E000B04200D156E7052657E7012655E7022606
:1016F00053E702B004BC9046F0BDC0460000014074
:1017000000040140001002400004004800080048A6
:10171000000C0048002A01D0816170478162FCE71B
:1017200010B52123C35C022B03D004238363012063
:1017300010BD026813680E218B43136001680A68AC
:1017400001239A430A60C26B1900046CA1405160E6
:10175000212283541F330022C254436B002B02D03A
:1017600098470020E4E70020E2E7000070B5002879
:1017700011DB8308144DC0339B005C5903221040D9
:10178000C000FC3216008640B44389010A40824002
:1017900014435C5170BDC0B20F230340083B9B084B
:1017A00006339B00094A944663445D680324204045
:1017B000C000FF2214008440A54389010A408240F2
:1017C0002A435A60E6E7C04600E100E000ED00E091
:1017D0001F2318401E3B8340014A13607047C046D8
:1017E00000E100E001380A4B98420FD8094A5060E6
:1017F0000948036A1B021B0AC02109060B43036246
:101800000023936007331360002070470120FCE73A
:10181000FFFFFF0010E000E000ED00E070B5050004
:101820000A4C0B4B23600023A360FFF7D7FD094947
:10183000FEF76AFC60603123E360074B1D802000E7
:10184000FEF772FF43425841C0B270BD2400002031
:101850000020004040420F006400002010B5044BFF
:101860001A88044B1A800448FEF75EFE10BDC0467D
:1018700064000020200000202400002010B5134B3D
:101880001B68834201D0002010BDDA69920602D5A0
:101890001A68920607D4DA69120614D51B681B066B
:1018A0000CD40020F0E70A4B1B689847074B1A68D6
:1018B000936908210B4393610120E5E7054B1B6801
:1018C00098470120E0E70020DEE7C04668000020DE
:1018D00004020020FC010020134B1A6801210A4376
:1018E0001A605A68114802405A601A68104802404B
:1018F0001A601A680F4802401A605A680E4802407F
:101900005A60DA6A0F208243DA621A6B0B4802408F
:101910001A631A6B802002431A635A6B8A435A6314
:1019200000229A607047C046001002400CB8FF08C1
:10193000FFFFF6FEFFFFFBFFFFFFC0FF6CFEFFFF98
:101940001348854613480168090E134A914205D190
:1019500012481349016013481349016013481449A0
:10196000144A002302E0D458C4500433C4188C42F3
:10197000F9D3114A114C002301E013600432A24252
:10198000FBD3FFF7A9FF00F01DF8FEF7EAFCFEE726
:1019900000180020040000001F0000001810024082
:1019A00001000000000001400000000000000020D5
:1019B00004000020741A0008040000201002002017
:1019C000FEE7000070B500260C4D0D4C641BA41002
:1019D000A64209D1002600F021F80A4D0A4C641BEA
:1019E000A410A64205D170BDB300EB58984701364C
:1019F000EEE7B300EB5898470136F2E76C1A00089F
:101A00006C1A00086C1A0008701A000803001218FB
:101A1000934200D1704719700133F9E7F8B5C04619
:101A2000F8BC08BC9E467047F8B5C046F8BC08BC78
:041A30009E46704717
:101A340002030405060708090A0B0C0D0E0F10100B
:101A44000102030405060708090A0B0C0D0E0F100A
:101A5400000000000000000001020304060708095A
:081A6400000000000102030470
:041A6C00E900000885
:041A7000C1000008A9
:041A740000127A00E2
:040000050800194195
:00000001FF
